:100000000C942A000C9407230C943A230C946D232F
:100010000C948B100C94BE100C9447000C947D1F14
:100020000C94B01F0C94E31F0C94F1100C94241149
:100030000C9447000C9447000C9447000C94470024
:100040000C9472290C9447000C9447000C944700C0
:100050000C94470011241FBECFE5D8E0DEBFCDBF12
:1000600011E0A0E6B0E0E0E6FAE602C005900D92ED
:10007000A43DB107D9F712E0A4EDB1E001C01D9293
:10008000AC35B107E1F70E9437300C942E350C9453
:100090000000EF92FF920F931F937B018C0120E0F1
:1000A00030E040E05FE40E94550488238CF0C801F2
:1000B000B70120E030E040E05FE40E94C1010E940F
:1000C00043059B01AC01205030404040504806C0E1
:1000D000C801B7010E9443059B01AC01B901CA01E7
:1000E0001F910F91FF90EF900895A0E0B0E0EBE733
:1000F000F0E00C94F734DC012B01FA019C91923072
:1001000008F439C1EB018881823008F433C194309E
:1001100069F4843009F02FC111969C91119789815F
:10012000981709F428C1A0E6B0E025C1843009F48D
:1001300021C18230A9F4923009F01DC19A01AD01AC
:1001400088E0EA010990AE01E90109929E0181501F
:10015000C1F7E201898111969C918923818308C1AD
:10016000923009F407C112962D903C901397EB0141
:100170008A819B811496AD90BD90CD90DC901797AD
:10018000EC80FD800E811F819101281B390BB90184
:1001900037FF04C066277727621B730B6032710537
:1001A0000CF061C0121613066CF537014801062EDB
:1001B00004C096948794779467940A94D2F721E0C8
:1001C00030E040E050E004C0220F331F441F551FB1
:1001D0006A95D2F721503040404050402E213F21B7
:1001E00040235123211531054105510521F021E01E
:1001F00030E040E050E079018A01E628F72808293C
:1002000019293CC0232BD1F1260E371E350146019A
:10021000062E04C096948794779467940A94D2F734
:1002200021E030E040E050E004C0220F331F441FC3
:10023000551F6A95D2F721503040404050402A2146
:100240003B214C215D21211531054105510521F04E
:1002500021E030E040E050E059016A01A628B728CB
:10026000C828D9280BC0821593052CF01C01AA249C
:10027000BB24650103C0EE24FF24870111969C91E5
:10028000D20111968C91981709F445C0992339F041
:10029000A80197012A193B094C095D0906C0A6016E
:1002A00095012E193F09400B510B57FD08C01182D3
:1002B0003382228224833583468357831DC081E0A5
:1002C00081833382228288279927DC01821B930B4A
:1002D000A40BB50B84839583A683B7830DC0220F2F
:1002E000331F441F551F24833583468357838281E0
:1002F000938101979383828324813581468157813D
:10030000DA01C9010197A109B1098F5F9F4FAF4F72
:10031000BF4328F30BC0918333822282EA0CFB1C7B
:100320000C1D1D1DE482F5820683178383E0808304
:10033000248135814681578157FF1AC0C901AA27F8
:1003400097FDA095BA2F81709070A070B0705695EF
:10035000479537952795822B932BA42BB52B848318
:100360009583A683B7838281938101969383828349
:10037000DF0101C0D201CD01CDB7DEB7E2E10C94BF
:100380001335A0E2B0E0E7ECF1E00C9403356983AB
:100390007A838B839C832D833E834F835887E9E048
:1003A000EE2EF12CEC0EFD1ECE010196B7010E943F
:1003B00034078E010F5E1F4FCE010596B8010E94D3
:1003C00034078A8991E089278A8BC701B801AE0179
:1003D000475E5F4F0E9475000E945F06A096E6E0B0
:1003E0000C941F35A0E2B0E0E8EFF1E00C94033587
:1003F00069837A838B839C832D833E834F835887C5
:10040000F9E0EF2EF12CEC0EFD1ECE010196B701A6
:100410000E9434078E010F5E1F4FCE010596B80172
:100420000E943407C701B801AE01475E5F4F0E94CA
:1004300075000E945F06A096E6E00C941F35A0E2CE
:10044000B0E0E5E2F2E00C94F73469837A838B83C1
:100450009C832D833E834F835887CE010196BE0136
:10046000675F7F4F0E943407CE010596BE016F5E25
:100470007F4F0E9434079985923088F089898230B5
:10048000C8F0943019F4823051F404C0843029F457
:10049000923081F480E690E0C6C0923049F420E0CA
:1004A0009A858A89981321E02A87CE010996BBC0D4
:1004B000823049F420E09A858A89981321E02A8BBA
:1004C000CE014196B0C02D843E844F8458886D88FB
:1004D0007E888F88988CEE24FF248701AA24BB2471
:1004E000650140E050E060E070E0E0E0F0E0C10174
:1004F00081709070892BE9F0E60CF71C081D191D1E
:100500009A01AB012A0D3B1D4C1D5D1D80E090E062
:10051000A0E0B0E0E614F7040805190520F481E036
:1005200090E0A0E0B0E0BA01A901480F591F6A1F8E
:100530007B1FAA0CBB1CCC1CDD1C97FE08C081E0F5
:1005400090E0A0E0B0E0A82AB92ACA2ADB2A3196B6
:10055000E032F10549F0660C771C881C991C569412
:10056000479437942794C3CFFA85EA892B893C892D
:100570008B859C85280F391F2E5F3F4F17C0CA01FE
:1005800081709070892B61F016950795F794E79428
:1005900080E090E0A0E0B0E8E82AF92A0A2B1B2BC3
:1005A00076956795579547952F5F3F4F77FDE7CF36
:1005B0000CC0440F551F661F771F17FD4160EE0CDE
:1005C000FF1C001F111F21503040403090E05907A0
:1005D00090E0690790E4790760F32B8F3C8FDB0193
:1005E000CA018F779070A070B07080349105A1051A
:1005F000B10561F447FD0AC0E114F10401051105DC
:1006000029F0405C5F4F6F4F7F4F40781A8EFE1786
:1006100011F081E08A8F4D8F5E8F6F8F78A383E01A
:10062000898FCE0149960E945F06A096E2E10C9464
:100630001335A8E1B0E0EFE1F3E00C94FF346983F7
:100640007A838B839C832D833E834F835887B9E0C5
:10065000EB2EF12CEC0EFD1ECE010196B7010E948F
:1006600034078E010F5E1F4FCE010596B8010E9420
:1006700034072985223008F47EC03989323010F4DD
:10068000B8017CC08A859A8989278A87243011F02D
:10069000223031F4231709F06EC060E670E06EC0BE
:1006A000343039F41D861E861F86188A1C861B86E8
:1006B00004C0323021F484E08987B7015FC02B8504
:1006C0003C858B899C89281B390B3C872B87ED84C3
:1006D000FE840F851889AD88BE88CF88D88CEA142F
:1006E000FB040C051D0540F4EE0CFF1C001F111F40
:1006F000215030403C872B8720E030E040E050E044
:1007000080E090E0A0E0B0E460E070E0EA14FB0478
:100710000C051D0540F0282B392B4A2B5B2BEA18C2
:10072000FB080C091D09B695A79597958795EE0CC2
:10073000FF1C001F111F6F5F7F4F6F31710531F775
:10074000DA01C9018F779070A070B0708034910584
:10075000A105B10561F427FD0AC0E114F10401050A
:10076000110529F0205C3F4F4F4F5F4F20782D87B8
:100770003E874F87588BBE01675F7F4FCB010E943A
:100780005F066896EAE00C941B35A8E1B0E0EBEC5C
:10079000F3E00C94033569837A838B839C832D83E8
:1007A0003E834F83588789E0E82EF12CEC0EFD1E26
:1007B000CE010196B7010E9434078E010F5E1F4FD4
:1007C000CE010596B8010E9434078985823040F039
:1007D0008989823028F0C701B8010E94AC0701C0A6
:1007E00081E06896E6E00C941F35A8E1B0E0EBEFFD
:1007F000F3E00C94033569837A838B839C832D8388
:100800003E834F83588789E0E82EF12CEC0EFD1EC5
:10081000CE010196B7010E9434078E010F5E1F4F73
:10082000CE010596B8010E9434078985823040F0D8
:100830008989823028F0C701B8010E94AC0701C045
:1008400081E06896E6E00C941F35A8E1B0E0EBE2A9
:10085000F4E00C94033569837A838B839C832D8326
:100860003E834F83588789E0E82EF12CEC0EFD1E65
:10087000CE010196B7010E9434078E010F5E1F4F13
:10088000CE010596B8010E9434078985823040F078
:100890008989823028F0C701B8010E94AC0701C0E5
:1008A0008FEF6896E6E00C941F35A8E1B0E0EBE529
:1008B000F4E00C94033569837A838B839C832D83C6
:1008C0003E834F83588789E0E82EF12CEC0EFD1E05
:1008D000CE010196B7010E9434078E010F5E1F4FB3
:1008E000CE010596B8010E9434078985823040F018
:1008F0008989823028F0C701B8010E94AC0701C085
:100900008FEF6896E6E00C941F35A8E1B0E0EBE8C5
:10091000F4E00C94033569837A838B839C832D8365
:100920003E834F83588789E0E82EF12CEC0EFD1EA4
:10093000CE010196B7010E9434078E010F5E1F4F52
:10094000CE010596B8010E9434078985823040F0B7
:100950008989823028F0C701B8010E94AC0701C024
:1009600081E06896E6E00C941F35A8E1B0E0EBEB7F
:10097000F4E00C94033569837A838B839C832D8305
:100980003E834F83588789E0E82EF12CEC0EFD1E44
:10099000CE010196B7010E9434078E010F5E1F4FF2
:1009A000CE010596B8010E9434078985823040F057
:1009B0008989823028F0C701B8010E94AC0701C0C4
:1009C00081E06896E6E00C941F35A8E0B0E0EBEE1D
:1009D000F4E00C9400359B01AC0183E08983DA01DB
:1009E000C9018827B7FD83959927AA27BB27B82E69
:1009F000211531054105510519F482E089833AC07A
:100A00008823A9F0203080E0380780E0480780E89C
:100A1000580729F460E070E080E09FEC30C0EE24DD
:100A2000FF248701E21AF30A040B150B02C07901B7
:100A30008A018EE1C82ED12CDC82CB82ED82FE822F
:100A40000F831887C801B7010E9410060197181676
:100A5000190684F4082E04C0EE0CFF1C001F111FA1
:100A60000A94D2F7ED82FE820F831887C81AD90A3A
:100A7000DC82CB82BA82CE0101960E945F06289664
:100A8000E9E00C941C35ACE0B0E0E9E4F5E00C944E
:100A9000073569837A838B839C83CE010196BE01DF
:100AA0006B5F7F4F0E9434078D81823061F182300D
:100AB00050F1843021F48E81882351F12EC02F8192
:100AC000388537FD20C06E812F3131051CF066233B
:100AD000F9F023C08EE190E0821B930B29853A85C3
:100AE0004B855C8504C056954795379527958A9523
:100AF000D2F76623B1F050954095309521953F4F40
:100B00004F4F5F4F0EC020E030E040E050E009C0A2
:100B10002FEF3FEF4FEF5FE704C020E030E040E011
:100B200050E8B901CA012C96E2E00C942335A8E004
:100B3000B0E0EDE9F5E00C94FF347B018C01611528
:100B400071058105910519F482E0898360C083E015
:100B500089838EE1C82ED12CDC82CB82ED82FE828D
:100B60000F831887C801B7010E941006FC01319756
:100B7000F7FF3BC0222733272E1B3F0B570168018D
:100B8000022E04C0D694C794B794A7940A94D2F7BF
:100B900040E050E060E070E081E090E0A0E0B0E094
:100BA00004C0880F991FAA1FBB1F2A95D2F701976F
:100BB000A109B1098E219F21A023B1230097A1058E
:100BC000B10521F041E050E060E070E04A295B2986
:100BD0006C297D294D835E836F8378878EE190E059
:100BE0008E1B9F0B9C838B8312C0309781F00E2E3F
:100BF00004C0EE0CFF1C001F111F0A94D2F7ED82F7
:100C0000FE820F831887CE1ADF0ADC82CB821A821B
:100C1000CE0101960E945F062896EAE00C941B35EF
:100C2000EF92FF920F931F937B018C0180E0E816F7
:100C300080E0F80681E0080780E0180788F48FEF6D
:100C4000E816F1040105110531F028F088E090E084
:100C5000A0E0B0E017C080E090E0A0E0B0E012C0FB
:100C600080E0E81680E0F80680E0080781E01807D9
:100C700028F088E190E0A0E0B0E004C080E190E0DE
:100C8000A0E0B0E020E230E040E050E0281B390B6B
:100C90004A0B5B0B04C016950795F794E7948A9569
:100CA000D2F7F701E859FF4F8081281B310941092C
:100CB0005109C9011F910F91FF90EF900895DF92A4
:100CC000EF92FF920F931F93FC01E480F580068161
:100CD0001781D1808081823048F480E090E0A0E1EB
:100CE000B0E0E82AF92A0A2B1B2BA5C0843009F4AE
:100CF0009FC0823021F4EE24FF24870105C0E11457
:100D0000F1040105110519F4E0E0F0E096C06281FC
:100D100073819FEF623879070CF05BC022E83FEFE8
:100D2000261B370B2A3131052CF020E030E040E063
:100D300050E02AC0B801A701022E04C0769567953D
:100D4000579547950A94D2F781E090E0A0E0B0E093
:100D500004C0880F991FAA1FBB1F2A95D2F70197BD
:100D6000A109B1098E219F21A023B1230097A105DC
:100D7000B10521F081E090E0A0E0B0E09A01AB0184
:100D8000282B392B4A2B5B2BDA01C9018F77907006
:100D9000A070B07080349105A105B10539F427FF2A
:100DA00009C0205C3F4F4F4F5F4F04C0215C3F4F55
:100DB0004F4F5F4FE0E0F0E02030A0E03A07A0E0C6
:100DC0004A07A0E45A0710F0E1E0F0E079018A0157
:100DD00027C06038710564F5FB01E158FF4FD80169
:100DE000C7018F779070A070B07080349105A10515
:100DF000B10539F4E7FE0DC080E490E0A0E0B0E07A
:100E000004C08FE390E0A0E0B0E0E80EF91E0A1FF6
:100E10001B1F17FF05C016950795F794E7943196A9
:100E200087E016950795F794E7948A95D1F705C062
:100E3000EE24FF248701EFEFF0E06E2F6795662721
:100E40006795902F9F77D794DD24D7948E2F869522
:100E5000492F462B582F5D29B701CA011F910F91C9
:100E6000FF90EF90DF900895FC01DB0140815181FC
:100E70002281622F6F7770E0221F2227221F938129
:100E8000892F880F822B282F30E0991F9927991FCF
:100E900011969C93119721153105A9F5411551051E
:100EA0006105710511F482E037C082E89FEF139667
:100EB0009C938E9312979A01AB0167E0220F331F28
:100EC000441F551F6A95D1F783E08C930DC0220F04
:100ED000331F441F551F12968D919C9113970197B4
:100EE00013969C938E931297203080E0380780E011
:100EF000480780E4580758F314962D933D934D937B
:100F00005C93179708952F3F310579F441155105EA
:100F10006105710519F484E08C93089564FF03C0A2
:100F200081E08C9312C01C9210C02F573040139652
:100F30003C932E93129783E08C9387E0440F551FC8
:100F4000661F771F8A95D1F7706414964D935D9351
:100F50006D937C93179708951F93DC01FB019C917F
:100F6000923008F447C08081823008F443C0943046
:100F700051F411961C91843099F58181682F70E0AD
:100F8000611B71093FC0843021F0923031F482300E
:100F9000B9F18181882389F12DC011961C91119797
:100FA0008230F1F081811817D9F412962D913C917D
:100FB0001397828193818217930794F0281739073A
:100FC000BCF014968D919D910D90BC91A02D248123
:100FD000358146815781281739074A075B0718F47E
:100FE000112341F00AC082179307A407B50740F404
:100FF000112319F061E070E005C06FEF7FEF02C0D0
:1010000060E070E0CB011F910895DF93CF93CDB7DF
:10101000DEB70E94100A88EC61E10E94E80C88ECBF
:1010200064E10E946D0D88EC6CE90E94150F882325
:1010300099F488EC60E20E94DA0D81E080931C0252
:1010400081E080931D022DEB39E08DE3B9010E9410
:1010500048108DE30E94840FCF91DF910895EF92A5
:101060000F931F93DF93CF93CDB7DEB729970FB6BA
:10107000F894DEBF0FBECDBF9A8389837C836B83D8
:101080004D832E8318870F83E98689819A81009783
:1010900009F452C08D81893008F04EC08D81882FAF
:1010A00090E0880F991F880F991F880F991FFC01E6
:1010B000EC52FE4F89819A81918380838D81882FA4
:1010C00090E0880F991F880F991F0196880F991F2C
:1010D000FC01EC52FE4F8B819C81918380838D813A
:1010E000882F90E0880F991F0196880F991F880F0D
:1010F000991FFC01EC52FE4F8F819885918380836C
:101100008D81882F90E0880F991F880F991F880F75
:10111000991FFC01E652FE4F8E8180838D81882FBE
:1011200090E0880F991F880F991F880F991FFC0165
:10113000E552FE4F8985808329960FB6F894DEBF6D
:101140000FBECDBFCF91DF911F910F91EF9008950A
:10115000EF92FF920F931F93DF93CF9300D000D0B5
:101160000F92CDB7DEB71A821B821C821D82789443
:1011700020911F02309120024091210250912202C1
:101180008A819B81AC81BD8182179307A407B50733
:1011900078F780911F0290912002A0912102B091D6
:1011A00022028A839B83AC83BD8388E0898381C0CC
:1011B0008981992787FD9095880F991F880F991F1E
:1011C000880F991FFC01EC52FE4F8081918100979E
:1011D00009F46CC08981992787FD9095880F991F24
:1011E000880F991F880F991FFC01E652FE4F8081DE
:1011F000873109F05BC0E0901F02F090200200915F
:101200002102109122028981992787FD9095880FEC
:10121000991F0196880F991F880F991FFC01EC52A6
:10122000FE4F808191819C0140E050E0C801B701F0
:101230000E94D534DC01CB019C01AD018981992745
:1012400087FD9095880F991F880F991F880F991F08
:10125000FC01E552FE4F8081882F90E0A0E0B0E0D5
:10126000281739074A075B0709F58981992787FD00
:101270009095880F991F880F991F880F991FFC015F
:10128000EC52FE4F208131818981992787FD90950D
:10129000880F991F880F991F0196880F991FFC01CD
:1012A000EC52FE4F80819181F9010995898181502D
:1012B0008983898188230CF07BCF5ACFDF93CF932A
:1012C0000F92CDB7DEB7898389818930E0F48981B7
:1012D000882F90E0880F991F880F991F880F991FFA
:1012E000FC01EC52FE4F118210828981882F90E020
:1012F000880F991F880F991F880F991FFC01E652CC
:10130000FE4F81E180830F90CF91DF910895DF93AD
:10131000CF930F92CDB7DEB789838981893070F47E
:101320008981882F90E0880F991F880F991F880F57
:10133000991FFC01E652FE4F88E380830F90CF9106
:10134000DF910895DF93CF930F92CDB7DEB78983F6
:101350008981893070F48981882F90E0880F991FE6
:10136000880F991F880F991FFC01E652FE4F87E1F5
:1013700080830F90CF91DF910895DF93CF93CDB706
:10138000DEB780911D02815080931D0280911D0265
:101390008823B9F480911F0290912002A09121022C
:1013A000B09122020196A11DB11D80931F0290935E
:1013B0002002A0932102B093220280911C0280930C
:1013C0001D02CF91DF910895DF93CF93CDB7DEB7A4
:1013D00080911D02815080931D0280911D028823FF
:1013E000E1F4E2E5F0E080911E02808380911F022B
:1013F00090912002A0912102B09122020196A11D9C
:10140000B11D80931F0290932002A0932102B093FC
:10141000220280911C0280931D02CF91DF910895DA
:10142000DF93CF93CDB7DEB728970FB6F894DEBF22
:101430000FBECDBF81E08A83198272C18981282FB6
:1014400030E0C901880F991F880F991F820F931FE1
:10145000FC01E559FE4F40818981282F30E0C90108
:10146000880F991F880F991F820F931FFC01E45961
:10147000FE4F90819E012D5F3F4F842F692FA90160
:101480000E94A70BDC01CB018093250290932602DA
:10149000A0932702B09328028981282F30E0C90148
:1014A000880F991F880F991F820F931FFC01E55920
:1014B000FE4F8081883C09F08EC0A9E5B0E0E9E5E7
:1014C000F0E080818C7F8C93E3E5F0E01082ECE526
:1014D000F0E01082A3E5B0E0E3E5F0E090818B81DD
:1014E000892B8C93A3E5B0E0E3E5F0E08081482F01
:1014F0008981282F30E0C901880F991F880F991F13
:10150000820F931FFC01E359FE4F8081882F90E0EA
:10151000449782959295907F9827807F9827842B77
:101520008C938981282F30E0C901880F991F880F7B
:10153000991F820F931FFC01E259FE4F80818E316B
:10154000D1F08981282F30E0C901880F991F880FB9
:10155000991F820F931FFC01E259FE4F8081803258
:1015600041F4A3E5B0E0E3E5F0E0808188608C938E
:1015700002C082E08A838981282F30E0C901880F68
:10158000991F880F991F820F931FFC01E159FE4F8D
:101590008081282F30E038872F838F81988589328A
:1015A000910531F02F8138852A32310549F010C07C
:1015B000A9E5B0E0E9E5F0E0808181608C93ADC001
:1015C000A9E5B0E0E9E5F0E0808182608C93A5C0F8
:1015D00082E08A83A2C08981282F30E0C901880F68
:1015E000991F880F991F820F931FFC01E559FE4F29
:1015F00080818B3C09F08EC0A9E5B0E0E9E5F0E020
:1016000080818F738C93E5E4F0E01082E3E4F0E0F6
:101610001082A5E4B0E0E5E4F0E090818B81892BB5
:101620008C93A5E4B0E0E5E4F0E08081482F898167
:10163000282F30E0C901880F991F880F991F820F4A
:10164000931FFC01E359FE4F8081882F90E044975F
:1016500082959295907F9827807F9827842B8C93F2
:101660008981282F30E0C901880F991F880F991FA1
:10167000820F931FFC01E259FE4F80818E31D1F021
:101680008981282F30E0C901880F991F880F991F81
:10169000820F931FFC01E259FE4F8081803241F49A
:1016A000A5E4B0E0E5E4F0E0808188608C9302C0BE
:1016B00082E08A838981282F30E0C901880F991F31
:1016C000880F991F820F931FFC01E159FE4F808103
:1016D000282F30E03E832D838D819E8189329105B4
:1016E00031F02D813E812A32310549F010C0A9E543
:1016F000B0E0E9E5F0E0808180648C930EC0A9E55C
:10170000B0E0E9E5F0E0808180688C9306C082E07B
:101710008A8303C082E08A8309C089818F5F8983BD
:10172000909168018981891708F488CE8A81813077
:1017300019F03A813C8301C01C828C8128960FB637
:10174000F894DEBF0FBECDBFCF91DF910895DF9338
:10175000CF93CDB7DEB72A970FB6F894DEBF0FBE92
:10176000CDBF8D836E8358874F8380E094E2A4EFD2
:10177000B0E089839A83AB83BC838E81282F30E0CD
:101780003A87298789859A858E30910509F481C029
:1017900029853A852F303105ECF489859A858B307F
:1017A000910509F444C029853A852C30310534F47B
:1017B00089859A858A30910591F1F7C029853A8506
:1017C0002C303105C9F189859A858D30910509F450
:1017D00048C0EBC029853A852131310509F4A7C0FD
:1017E00089859A85823191056CF429853A852F3057
:1017F000310509F46BC089859A858031910509F41A
:101800007DC0D3C029853A852231310509F4ADC0A8
:1018100089859A858331910509F4B7C0C6C0EF81E7
:10182000F885108219821A821B821C82C2C0EF8145
:10183000F88581E08083BDC0EF81F88582E08083F8
:1018400089819A81AB81BC81689412F8B695A7957D
:10185000979587951694D1F789839A83AB83BC8338
:10186000A8C08D818B3CA9F4EF81F88583E080834B
:1018700089819A81AB81BC81689414F8B695A7954B
:10188000979587951694D1F789839A83AB83BC8308
:1018900090C089819A81AB81BC81689415F8B69516
:1018A000A795979587951694D1F789839A83AB83EB
:1018B000BC838D818B3C29F4EF81F88584E08083A3
:1018C00078C0EF81F88583E0808373C08D818B3C85
:1018D000A9F4EF81F88585E0808389819A81AB81C5
:1018E000BC81689416F8B695A79597958795169438
:1018F000D1F789839A83AB83BC835BC089819A814A
:10190000AB81BC81892F9A2FAB2FBB2789839A8308
:10191000AB83BC838D818B3C29F4EF81F88586E015
:10192000808347C0EF81F88584E0808342C089814D
:101930009A81AB81BC81072E7AE0B695A7959795E1
:1019400087957A95D1F7702D89839A83AB83BC8371
:101950008D818B3C29F4EF81F88587E0808329C055
:10196000EF81F88585E0808324C08FEF9FEFAFEF94
:10197000BFEF89839A83AB83BC838D81883CC9F494
:10198000EF81F88586E0808314C08FEF9FEFAFEF83
:10199000BFEF89839A83AB83BC838D81883C49F4F4
:1019A000EF81F88587E0808304C019821A821B8248
:1019B0001C8289819A81AB81BC81BC01CD012A96B0
:1019C0000FB6F894DEBF0FBECDBFCF91DF91089563
:1019D000DF93CF93CDB7DEB72A970FB6F894DEBF6B
:1019E0000FBECDBF8887698781E08E838AE08F83B1
:1019F000E9E5F0E080818D839E01295F3F4F888576
:101A00006985A9010E94A70BDC01CB0189839A8318
:101A1000AB83BC838885883C19F5A9E5B0E0E9E58E
:101A2000F0E080818C7F8C93A3E5B0E0E3E5F0E00B
:101A30008081887F8C93A3E5B0E0E3E5F0E09081BE
:101A40008F81892B8C9389819A81AB81BC81809312
:101A5000250290932602A0932702B093280228C063
:101A600088858B3C19F5A9E5B0E0E9E5F0E08081D7
:101A70008F738C93A5E4B0E0E5E4F0E08081887F8B
:101A80008C93A5E4B0E0E5E4F0E090818F81892BB0
:101A90008C9389819A81AB81BC8180932902909338
:101AA0002A02A0932B02B0932C0202C082E08E8304
:101AB000E9E5F0E08D8180838E81813019F08E819F
:101AC0008A8701C01A868A852A960FB6F894DEBFE7
:101AD0000FBECDBFCF91DF910895DF93CF9300D09C
:101AE00000D00F92CDB7DEB78B836C8381E08A8301
:101AF000E9E5F0E0808189838B81883C09F5A9E5DF
:101B0000B0E0E9E5F0E080818C7F8C93A3E5B0E064
:101B1000E3E5F0E080818F7C8C93A3E5B0E0E3E522
:101B2000F0E08081282F8C81882F90E04497829567
:101B30009295907F9827807F9827822B8C9326C040
:101B40008B818B3C09F5A9E5B0E0E9E5F0E0808107
:101B50008F738C93A5E4B0E0E5E4F0E080818F7CA6
:101B60008C93A5E4B0E0E5E4F0E08081282F8C813F
:101B7000882F90E0449782959295907F9827807F58
:101B80009827822B8C9302C082E08A83E9E5F0E0FB
:101B9000898180838A81813019F08A818D8301C097
:101BA0001D828D810F900F900F900F900F90CF910D
:101BB000DF910895DF93CF93CDB7DEB72D970FB6A2
:101BC000F894DEBF0FBECDBF8F83688781E08E8320
:101BD0001A8288858E3121F08885803209F07DC097
:101BE000E9E5F0E0808189838F81282F30E03D870F
:101BF0002C878C859D85883C910531F02C853D8511
:101C00002B3C310551F012C083E08D83E3E5F0E019
:101C100080818C8383E08B830DC080EC8D83E5E431
:101C2000F0E080818C8383E08B8304C082E08E832C
:101C300081E08A838A818823C9F5A9E5B0E0E9E5D6
:101C4000F0E08081982F8D81809589238C93888501
:101C5000282F30E03B872A878A859B858E31910526
:101C600031F02A853B852032310591F01FC08B81F0
:101C7000282F30E081E090E0022E02C0880F991FEB
:101C80000A94E2F7982F90958C8189238C830EC05B
:101C90008B81282F30E081E090E002C0880F991FEF
:101CA0002A95E2F7982F8C81892B8C83E9E5F0E067
:101CB000898180838F81882F90E09C01285C30404F
:101CC000C901880F991F880F991F820F931FFC016C
:101CD000E259FE4F8885808302C082E08E838E8128
:101CE000813019F03E81398701C0198689852D968A
:101CF0000FB6F894DEBF0FBECDBFCF91DF91089530
:101D0000DF93CF9300D000D0CDB7DEB78B8381E0D7
:101D10008A83EFE5F0E080818983F8948B81883CA9
:101D200021F4E2E5F0E0108209C08B818B3C21F4C4
:101D3000E4E4F0E0108202C082E08A83EFE5F0E0A4
:101D4000898180838A81813019F08A818C8301C0E6
:101D50001C828C810F900F900F900F90CF91DF918C
:101D60000895DF93CF9300D000D0CDB7DEB78A833C
:101D70006B8381E089838A81883C29F4E2E5F0E085
:101D80008B8180830AC08A818B3C29F4E4E4F0E0F3
:101D90008B81808302C082E089838981813019F040
:101DA00089818C8301C01C828C810F900F900F90D1
:101DB0000F90CF91DF910895DF93CF9300D000D0A3
:101DC0000F92CDB7DEB78A837C836B8381E08983F2
:101DD0008B819C810097B9F08A81883C39F4EB8132
:101DE000FC81A2E5B0E08C9180830FC08A818B3C9E
:101DF00039F4EB81FC81A4E4B0E08C91808305C0D0
:101E000082E0898302C083E089838981813019F06F
:101E100089818D8301C01D828D810F900F900F905D
:101E20000F900F90CF91DF910895DF93CF9300D063
:101E300000D0CDB7DEB78A836B8381E089838A8146
:101E4000883C79F4909169018B81981750F0ECE50A
:101E5000F0E08B818083ECE5F0E0808180932302C9
:101E600014C08A818B3C79F490916A018B81981718
:101E700050F0E3E4F0E08B818083E3E4F0E08081E4
:101E80008093240202C082E089838981813019F025
:101E900089818C8301C01C828C810F900F900F90E0
:101EA0000F90CF91DF910895DF93CF9300D000D0B2
:101EB0000F92CDB7DEB78A837C836B8381E0898301
:101EC0008A81883C31F4EB81FC81809123028083FC
:101ED0000BC08A818B3C31F4EB81FC818091240220
:101EE000808302C082E089838981813019F08981F1
:101EF0008D8301C01D828D810F900F900F900F90E8
:101F00000F90CF91DF910895DF93CF9300D000D051
:101F10000F92CDB7DEB78A8381E08983F8948A81F6
:101F2000282F30E03D832C838C819D818234910564
:101F300031F12C813D81233431055CF48C819D810C
:101F40008C33910561F02C813D812D33310579F081
:101F500026C08C819D8183349105C9F020C0A9E5FC
:101F6000B0E0E9E5F0E0808181608C931AC0A9E5DA
:101F7000B0E0E9E5F0E0808182608C9312C0A9E5D1
:101F8000B0E0E9E5F0E0808180648C930AC0A9E5C7
:101F9000B0E0E9E5F0E0808180688C9302C082E0E7
:101FA000898378948981813019F099819B8301C05C
:101FB0001B828B810F900F900F900F900F90CF91FD
:101FC000DF910895DF93CF9300D000D000D0CDB73C
:101FD000DEB78B8381E08A83EFE5F0E0808189833F
:101FE000F8948B81282F30E03E832D838D819E8154
:101FF0008234910531F12D813E81233431055CF429
:102000008D819E818C33910561F02D813E812D3330
:10201000310579F026C08D819E8183349105C9F008
:1020200020C0A9E5B0E0E9E5F0E080818E7F8C93E7
:102030001AC0A9E5B0E0E9E5F0E080818D7F8C93DE
:1020400012C0A9E5B0E0E9E5F0E080818F7B8C93D8
:102050000AC0A9E5B0E0E9E5F0E080818F778C93D4
:1020600002C082E08A83EFE5F0E0898180838A8183
:10207000813019F09A819C8301C01C828C81269644
:102080000FB6F894DEBF0FBECDBFCF91DF9108959C
:10209000DF93CF9300D000D00F92CDB7DEB78B8304
:1020A0007D836C8382E08A838C819D81009741F1DE
:1020B00023C08981282F30E0C901880F991F820F22
:1020C000931FFC01EB58FE4F90818B81981789F488
:1020D0008981282F30E0C901880F991F820F931F33
:1020E000FC01EA58FE4F8C819D81918380831A8286
:1020F00009C089818F5F898389818430D0F202C0D1
:1021000083E08A838A810F900F900F900F900F9039
:10211000CF91DF9108951F920F920FB60F92112465
:102120002F933F934F935F936F937F938F939F93DF
:10213000AF93BF93EF93FF93DF93CF93CDB7DEB70A
:1021400080917F0190918001009729F0E0917F01BB
:10215000F09180010995CF91DF91FF91EF91BF91AF
:10216000AF919F918F917F916F915F914F913F912F
:102170002F910F900FBE0F901F9018951F920F92E6
:102180000FB60F9211242F933F934F935F936F934A
:102190007F938F939F93AF93BF93EF93FF93DF93BF
:1021A000CF93CDB7DEB780917C0190917D010097F0
:1021B00029F0E0917C01F0917D010995CF91DF91AB
:1021C000FF91EF91BF91AF919F918F917F916F910F
:1021D0005F914F913F912F910F900FBE0F901F90E5
:1021E00018951F920F920FB60F9211242F933F93C1
:1021F0004F935F936F937F938F939F93AF93BF930F
:10220000EF93FF93DF93CF93CDB7DEB78091790142
:1022100090917A01009729F0E0917901F0917A018B
:102220000995CF91DF91FF91EF91BF91AF919F9170
:102230008F917F916F915F914F913F912F910F906F
:102240000FBE0F901F9018951F920F920FB60F920E
:1022500011242F933F934F935F936F937F938F93AB
:102260009F93AF93BF93EF93FF93DF93CF93CDB73C
:10227000DEB78091760190917701009729F0E09187
:102280007601F09177010995CF91DF91FF91EF9160
:10229000BF91AF919F918F917F916F915F914F917E
:1022A0003F912F910F900FBE0F901F901895DF93C5
:1022B000CF93CDB7DEB729970FB6F894DEBF0FBE28
:1022C000CDBF81E08D831C821B82BBC18B81282FF7
:1022D00030E0C901880F991F880F991F820F931F43
:1022E000FC01EC57FE4F8081893C89F08B81282FBF
:1022F00030E0C901880F991F880F991F820F931F23
:10230000FC01EC57FE4F80818A3C09F097C18C811B
:10231000882309F0D2C081E08C83A9E5B0E0E9E52B
:10232000F0E08081837C8C93EFE4F0E01082EEE4B7
:10233000F0E01082EFE5F0E080818A83F894EBE42E
:10234000F0E01082EAE4F0E01082E9E4F0E01082CC
:10235000E8E4F0E01082EFE5F0E08A8180838B8191
:10236000282F30E0C901880F991F880F991F820F0D
:10237000931FFC01EB57FE4F90819E012A5F3F4F58
:1023800089EC692FA9010E943813DC01CB018093ED
:10239000330290933402A0933502B0933602AEE438
:1023A000B0E0EEE4F0E090818E81892B8C938B81FC
:1023B000282F30E0C901880F991F880F991F820FBD
:1023C000931FFC01E957FE4F8081853608F473C0E6
:1023D0008B81282F30E0C901880F991F880F991F22
:1023E000820F931FFC01E957FE4F8081843708F06C
:1023F00062C08B81282F30E0C901880F991F880F98
:10240000991F820F931FFC01E957FE4F8081883688
:1024100009F451C08B81282F30E0C901880F991F22
:10242000880F991F820F931FFC01E957FE4F80818F
:10243000803709F440C08B81282F30E0C901880F14
:10244000991F880F991F820F931FFC01E957FE4FB8
:102450008081813781F18B81282F30E0C901880F7D
:10246000991F880F991F820F931FFC01E957FE4F98
:10247000808184568983AFE4B0E0EFE4F0E08081AE
:10248000982F89818370892B8C93AEE4B0E0EEE4C1
:10249000F0E08081282F898186958695882F90E0AD
:1024A00083709070880F991F880F991F880F991F4C
:1024B000822B8C9302C082E08D838B81282F30E0A9
:1024C000C901880F991F880F991F820F931FFC0164
:1024D000EA57FE4F8081863189F08B81282F30E0CA
:1024E000C901880F991F880F991F820F931FFC0144
:1024F000EA57FE4F8081873109F053C08B81282F26
:1025000030E0C901880F991F880F991F820F931F10
:10251000FC01EC57FE4F8081893C19F5AFE4B0E037
:10252000EFE4F0E08081482F8B81282F30E0C90153
:10253000880F991F880F991F820F931FFC01EA577C
:10254000FE4F8081882F90E04497002496958795D0
:102550000794969587950794982F802D842B8C93BC
:1025600022C0AFE4B0E0EFE4F0E08081482F8B813F
:10257000282F30E0C901880F991F880F991F820FFB
:10258000931FFC01EA57FE4F8081882F90E044970B
:1025900082959295907F9827807F9827842B8C93A3
:1025A00002C082E08D838B81282F30E0C901880F23
:1025B000991F880F991F820F931FFC01E857FE4F48
:1025C0008081282F30E03987288788859985833353
:1025D000910531F0288539852433310549F028C02B
:1025E000A9E5B0E0E9E5F0E0808184608C9322C049
:1025F0008B81282F30E0C901880F991F880F991F00
:10260000820F931FFC01EC57FE4F80818A3C41F4FE
:10261000A9E5B0E0E9E5F0E0808188608C930AC02C
:10262000A9E5B0E0E9E5F0E0808180618C9302C02B
:1026300082E08D838B818F5F8B8303C082E08D83EB
:1026400006C0909181018B81891708F43FCE8D815E
:10265000813019F03D813F8301C01F828F8129960F
:102660000FB6F894DEBF0FBECDBFCF91DF910895B6
:10267000DF93CF93CDB7DEB72A970FB6F894DEBFBE
:102680000FBECDBF8D836E8358874F8380E094E269
:10269000A4EFB0E089839A83AB83BC838E81282F1B
:1026A00030E03A87298789859A858E30910509F42B
:1026B00056C029853A852F30310584F489859A855D
:1026C0008B30910591F129853A852C30310591F1B6
:1026D00089859A858A30910501F197C029853A85C7
:1026E0002131310509F461C089859A8582319105CE
:1026F0003CF429853A852031310509F445C085C06F
:1027000089859A858231910509F465C029853A85C4
:102710002331310509F46CC078C0EF81F88510824F
:1027200019821A821B821C8274C0EF81F88581E0B5
:1027300080836FC0EF81F88582E0808389819A81F0
:10274000AB81BC81689412F8B695A795979587954B
:102750001694D1F789839A83AB83BC835AC089814D
:102760009A81AB81BC81689415F8B695A795979529
:1027700087951694D1F789839A83AB83BC83EF81C5
:10278000F88583E0808345C089819A81AB81BC81D3
:10279000892F9A2FAB2FBB2789839A83AB83BC8366
:1027A000EF81F88584E0808334C089819A81AB8190
:1027B000BC81072E7AE0B695A795979587957A956F
:1027C000D1F7702D89839A83AB83BC83EF81F88521
:1027D00085E080831EC08FEF9FEFAFEFBFEF89834F
:1027E0009A83AB83BC83EF81F88586E0808311C038
:1027F0008FEF9FEFAFEFBFEF89839A83AB83BC83EB
:10280000EF81F88587E0808304C019821A821B82D9
:102810001C8289819A81AB81BC81BC01CD012A9641
:102820000FB6F894DEBF0FBECDBFCF91DF910895F4
:10283000DF93CF93CDB7DEB72A970FB6F894DEBFFC
:102840000FBECDBF8887698781E08E838AE08F8342
:10285000E9E5F0E080818D839E01295F3F4F888507
:102860006985A9010E943813DC01CB0189839A8311
:10287000AB83BC838885893C19F088858A3C19F52F
:10288000A9E5B0E0E9E5F0E08081837C8C93AEE4DB
:10289000B0E0EEE4F0E08081887F8C93AEE4B0E0BD
:1028A000EEE4F0E090818F81892B8C9389819A816D
:1028B000AB81BC818093330290933402A0933502A4
:1028C000B093360202C082E08E83E9E5F0E08D81AC
:1028D00080838E81813019F08E818A8701C01A86AB
:1028E0008A852A960FB6F894DEBF0FBECDBFCF9172
:1028F000DF910895DF93CF9300D000D00F92CDB732
:10290000DEB78B836C8381E08A83E9E5F0E0808128
:1029100089838C81863121F08C81873109F052C006
:102920008B81893C21F08B818A3C09F044C0A9E568
:10293000B0E0E9E5F0E08081837C8C938B81893C79
:10294000E9F4AFE4B0E0EFE4F0E080818F738C93C2
:10295000AFE4B0E0EFE4F0E08081282F8C81882F95
:1029600090E04497002496958795079496958795CF
:102970000794982F802D822B8C931FC08B818A3CCB
:10298000E1F4AEE4B0E0EEE4F0E080818F7C8C9383
:10299000AEE4B0E0EEE4F0E08081282F8C81882F57
:1029A00090E0449782959295907F9827807F982712
:1029B000822B8C9302C082E08A83E9E5F0E0898172
:1029C000808302C082E08A838A81813019F08A8103
:1029D0008D8301C01D828D810F900F900F900F90FD
:1029E0000F90CF91DF910895DF93CF9300D000D067
:1029F00000D0CDB7DEB78C836D8381E08B838D8172
:102A0000853608F46AC08D81843708F066C08D81F0
:102A1000883609F462C08D81803709F45EC08D81EB
:102A2000813709F45AC0E9E5F0E080818A838C811E
:102A3000893C21F08C818A3C09F048C08D81853623
:102A400008F444C08D81843708F040C08D818836F9
:102A5000E9F18D818037D1F18D818137B9F18D8197
:102A600084568983A9E5B0E0E9E5F0E08081837CC4
:102A70008C93AEE4B0E0EEE4F0E08081877E8C934E
:102A8000AFE4B0E0EFE4F0E08081982F89818370BB
:102A9000892B8C93AEE4B0E0EEE4F0E08081282F47
:102AA000898186958695882F90E083709070880F35
:102AB000991F880F991F880F991F822B8C938D81E6
:102AC000809387018D8180938C0102C082E08B838B
:102AD000E9E5F0E08A81808302C082E08B838B810C
:102AE000813019F08B818E8301C01E828E812696E3
:102AF0000FB6F894DEBF0FBECDBFCF91DF91089522
:102B0000DF93CF93CDB7DEB727970FB6F894DEBF2C
:102B10000FBECDBF8C837E836D8381E08B838C81E0
:102B2000893C21F520918201309183018D819E8124
:102B300028173907D8F0EFE5F0E080818A83F89410
:102B4000EBE4F0E08D819E81892F99278083EAE470
:102B5000F0E08D818083EFE5F0E08A8180838D81D4
:102B60009E8190932E0280932D0229C08C818A3CF5
:102B700021F520918201309183018D819E8128175A
:102B80003907D8F0EFE5F0E080818983F894E9E433
:102B9000F0E08D819E81892F99278083E8E4F0E021
:102BA0008D818083EFE5F0E0898180838D819E8136
:102BB0009093300280932F0202C082E08B838B813E
:102BC000813019F08B818F8301C01F828F812796FE
:102BD0000FB6F894DEBF0FBECDBFCF91DF91089541
:102BE000DF93CF9300D00F92CDB7DEB79B838A835C
:102BF000EFE5F0E080818983F894E7E4F0E08A81F2
:102C00009B81892F99278083E6E4F0E08A81808385
:102C1000EFE5F0E0898180838A819B819093320285
:102C20008093310280E00F900F900F90CF91DF9151
:102C30000895DF93CF93CDB7DEB727970FB6F894FB
:102C4000DEBF0FBECDBF8C836D8381E08B838C8113
:102C5000893C21F08C818A3C09F07CC08D818333D2
:102C600021F08D81843309F075C01A8219828D811B
:102C7000282F30E03F832E838E819F8183339105FF
:102C800031F02E813F812433310521F135C0A9E592
:102C9000B0E0E9E5F0E0808184608C931A8212C094
:102CA0008A81282F30E0C901880F991F880F991F4A
:102CB000820F931FFC01E857FE4F8D8180838A812C
:102CC0008F5F8A83909181018A81891748F381E01F
:102CD000898312C08C818A3C41F4A9E5B0E0E9E522
:102CE000F0E0808188608C9307C0A9E5B0E0E9E559
:102CF000F0E0808180618C938981882369F51A8254
:102D000023C08A81282F30E0C901880F991F880FBE
:102D1000991F820F931FFC01EC57FE4F90818C810D
:102D2000981779F48A81282F30E0C901880F991FFC
:102D3000880F991F820F931FFC01E857FE4F8D816A
:102D400080838A818F5F8A83909181018A8189172C
:102D5000C0F202C082E08B838B8127960FB6F89475
:102D6000DEBF0FBECDBFCF91DF910895DF93CF932C
:102D700000D000D00F92CDB7DEB78B837D836C83FC
:102D800081E08A838C819D810097B1F18B81893CA0
:102D900019F08B81893C69F5198225C08981282F1A
:102DA00030E0C901880F991F880F991F820F931F68
:102DB000FC01EC57FE4F90818B81981789F4898133
:102DC000282F30E0C901880F991F880F991F820FA3
:102DD000931FFC01E857FE4F8081EC81FD818083C9
:102DE00089818F5F89839091810189818917B0F2F0
:102DF00005C082E08A8302C083E08A838A810F90C3
:102E00000F900F900F900F90CF91DF910895EF9258
:102E1000FF920F931F93DF93CF93CDB7DEB76D97DC
:102E20000FB6F894DEBF0FBECDBF8C874D875E878F
:102E30006F87788B81E08B8718868C85893C21F0A1
:102E40008C858A3C09F062C71B8232C08B81282F97
:102E500030E0C901880F991F880F991F820F931FB7
:102E6000FC01EC57FE4F90818C859817F1F48B8113
:102E7000282F30E0C901880F991F880F991F820FF2
:102E8000931FFC01E957FE4F80818A878B81282F91
:102E900030E0C901880F991F880F991F820F931F77
:102EA000FC01EA57FE4F808189878B818F5F8B837E
:102EB000909181018B81891748F28A85282F30E013
:102EC0003D8F2C8F8C8D9D8D8B36910509F403C31E
:102ED0002C8D3D8D2C3631052CF58C8D9D8D8736B6
:102EE000910509F48AC22C8D3D8D283631056CF48C
:102EF0008C8D9D8D8536910509F43FC02C8D3D8DBF
:102F00002636310509F459C1BEC68C8D9D8D893692
:102F1000910509F4A0C02C8D3D8D2A36310509F4A8
:102F2000BAC1B1C68C8D9D8D8E36910509F4F5C35D
:102F30002C8D3D8D2F3631056CF48C8D9D8D8C360E
:102F4000910509F47AC32C8D3D8D2D36310509F498
:102F500008C599C68C8D9D8D8237910509F44DC4A5
:102F60002C8D3D8D2337310509F4DBC58C8D9D8D6E
:102F70008F36910509F465C586C68FEF90E09F8373
:102F80008E838985863141F58E819F81CC01A0E0B9
:102F9000B0E0BC01CD010E949705DC01CB01BC0172
:102FA000CD012D853E854F8558890E941F02DC0189
:102FB000CB01BC01CD0120E030E048EC52E40E949E
:102FC0001903DC01CB01BC01CD010E944900DC01E9
:102FD000CB019D838C8357C68985873109F053C601
:102FE0008E819F81CC01A0E0B0E0BC01CD010E94A8
:102FF00097057B018C018E819F81CC01A0E0B0E020
:10300000BC01CD010E949705DC01CB01BC01CD01C3
:103010002D853E854F8558890E941F02DC01CB011A
:10302000BC01CD0120E030E048EC52EC0E941903D5
:10303000DC01CB019C01AD01C801B7010E94F20186
:10304000DC01CB01BC01CD010E944900DC01CB01B8
:103050009D838C8318C68FEF90E09F838E83898534
:103060008631B9F41B8E6D857E858F85988920E029
:1030700030E040E050E00E94C503882311F491E065
:103080009B8F81E02B8D8227882319F481E088872C
:10309000FAC589858731B9F41A8E6D857E858F854D
:1030A000988920E030E048EC52E40E94C503882370
:1030B00011F431E03A8F81E09A8D8927882319F441
:1030C00081E08887E0C589858631A9F58E819F8159
:1030D000CC01A0E0B0E00196A11DB11DBC01CD0165
:1030E0000E949705DC01CB01BC01CD012D853E85F9
:1030F0004F8558890E941F02DC01CB01BC01CD0124
:1031000020E030E048EC52E40E941903DC01CB01DE
:10311000BC01CD0120E030E040E85FE30E94C10146
:10312000DC01CB01BC01CD010E944900DC01CB01D7
:103130009D838C83A8C58985873109F0A4C58E81BC
:103140009F81CC01A0E0B0E0BC01CD010E949705B9
:103150007B018C018E819F81CC01A0E0B0E00196C3
:10316000A11DB11DBC01CD010E949705DC01CB0161
:10317000BC01CD012D853E854F8558890E941F02D7
:10318000DC01CB01BC01CD0120E030E048EC52EC89
:103190000E941903DC01CB019C01AD01C801B701FC
:1031A0000E94F201DC01CB01BC01CD010E9449006B
:1031B000DC01CB019D838C8366C58FEF91E09F83FB
:1031C0008E838985863141F58E819F81CC01A0E077
:1031D000B0E0BC01CD010E949705DC01CB01BC0130
:1031E000CD012D853E854F8558890E941F02DC0147
:1031F000CB01BC01CD0120E030E048EC52E40E945C
:103200001903DC01CB01BC01CD010E944900DC01A6
:10321000CB019D838C8337C58985873109F033C500
:103220008E819F81CC01A0E0B0E0BC01CD010E9465
:1032300097057B018C018E819F81CC01A0E0B0E0DD
:10324000BC01CD010E949705DC01CB01BC01CD0181
:103250002D853E854F8558890E941F02DC01CB01D8
:10326000BC01CD0120E030E048EC52EC0E94190393
:10327000DC01CB019C01AD01C801B7010E94F20144
:10328000DC01CB01BC01CD010E944900DC01CB0176
:103290009D838C83F8C48FEF91E09F838E83898513
:1032A0008631B9F4198E6D857E858F85988920E0E9
:1032B00030E040E050E00E94C503882311F421E093
:1032C000298F81E0398D8327882319F481E088874D
:1032D000DAC489858731B9F4188E6D857E858F852E
:1032E000988920E030E048EC52E40E94C50388232E
:1032F00011F481E0888F81E0988D8927882319F463
:1033000081E08887C0C489858631A9F58E819F8137
:10331000CC01A0E0B0E00196A11DB11DBC01CD0122
:103320000E949705DC01CB01BC01CD012D853E85B6
:103330004F8558890E941F02DC01CB01BC01CD01E1
:1033400020E030E048EC52E40E941903DC01CB019C
:10335000BC01CD0120E030E040E85FE30E94C10104
:10336000DC01CB01BC01CD010E944900DC01CB0195
:103370009D838C8388C48985873109F084C48E81BC
:103380009F81CC01A0E0B0E0BC01CD010E94970577
:103390007B018C018E819F81CC01A0E0B0E0019681
:1033A000A11DB11DBC01CD010E949705DC01CB011F
:1033B000BC01CD012D853E854F8558890E941F0295
:1033C000DC01CB01BC01CD0120E030E048EC52EC47
:1033D0000E941903DC01CB019C01AD01C801B701BA
:1033E0000E94F201DC01CB01BC01CD010E94490029
:1033F000DC01CB019D838C8346C48FEF93E09F83D8
:103400008E838985863141F58E819F81CC01A0E034
:10341000B0E0BC01CD010E949705DC01CB01BC01ED
:10342000CD012D853E854F8558890E941F02DC0104
:10343000CB01BC01CD0120E030E048EC52E40E9419
:103440001903DC01CB01BC01CD010E944900DC0164
:10345000CB019D838C8317C48985873109F013C400
:103460008E819F81CC01A0E0B0E0BC01CD010E9423
:1034700097057B018C018E819F81CC01A0E0B0E09B
:10348000BC01CD010E949705DC01CB01BC01CD013F
:103490002D853E854F8558890E941F02DC01CB0196
:1034A000BC01CD0120E030E048EC52EC0E94190351
:1034B000DC01CB019C01AD01C801B7010E94F20102
:1034C000DC01CB01BC01CD010E944900DC01CB0134
:1034D0009D838C83D8C38FEF93E09F838E838985F0
:1034E0008631B9F41F8A6D857E858F85988920E0A5
:1034F00030E040E050E00E94C503882311F421E051
:103500002F8B81E03F898327882319F481E0888706
:10351000BAC389858731B9F41E8A6D857E858F850A
:10352000988920E030E048EC52E40E94C5038823EB
:1035300011F481E08E8B81E09E898927882319F41C
:1035400081E08887A0C389858631A9F58E819F8116
:10355000CC01A0E0B0E00196A11DB11DBC01CD01E0
:103560000E949705DC01CB01BC01CD012D853E8574
:103570004F8558890E941F02DC01CB01BC01CD019F
:1035800020E030E048EC52E40E941903DC01CB015A
:10359000BC01CD0120E030E040E85FE30E94C101C2
:1035A000DC01CB01BC01CD010E944900DC01CB0153
:1035B0009D838C8368C38985873109F064C38E81BC
:1035C0009F81CC01A0E0B0E0BC01CD010E94970535
:1035D0007B018C018E819F81CC01A0E0B0E001963F
:1035E000A11DB11DBC01CD010E949705DC01CB01DD
:1035F000BC01CD012D853E854F8558890E941F0253
:10360000DC01CB01BC01CD0120E030E048EC52EC04
:103610000E941903DC01CB019C01AD01C801B70177
:103620000E94F201DC01CB01BC01CD010E944900E6
:10363000DC01CB019D838C8326C380913102909164
:1036400032029F838E838985863141F58E819F81E9
:10365000CC01A0E0B0E0BC01CD010E949705DC01E7
:10366000CB01BC01CD012D853E854F8558890E9437
:103670001F02DC01CB01BC01CD0120E030E048ECB1
:1036800052E40E941903DC01CB01BC01CD010E9470
:103690004900DC01CB019D838C83F5C2898587318C
:1036A00009F0F1C28E819F81CC01A0E0B0E0BC01A5
:1036B000CD010E9497057B018C018E819F81CC01F9
:1036C000A0E0B0E0BC01CD010E949705DC01CB0178
:1036D000BC01CD012D853E854F8558890E941F0272
:1036E000DC01CB01BC01CD0120E030E048EC52EC24
:1036F0000E941903DC01CB019C01AD01C801B70197
:103700000E94F201DC01CB01BC01CD010E94490005
:10371000DC01CB019D838C83B6C2809131029091F4
:1037200032029F838E838985863141F58E819F8108
:10373000CC01A0E0B0E0BC01CD010E949705DC0106
:10374000CB01BC01CD012D853E854F8558890E9456
:103750001F02DC01CB01BC01CD0120E030E048ECD0
:1037600052E40E941903DC01CB01BC01CD010E948F
:103770004900DC01CB019D838C8385C2898587311B
:1037800009F081C28E819F81CC01A0E0B0E0BC0134
:10379000CD010E9497057B018C018E819F81CC0118
:1037A000A0E0B0E0BC01CD010E949705DC01CB0197
:1037B000BC01CD012D853E854F8558890E941F0291
:1037C000DC01CB01BC01CD0120E030E048EC52EC43
:1037D0000E941903DC01CB019C01AD01C801B701B6
:1037E0000E94F201DC01CB01BC01CD010E94490025
:1037F000DC01CB019D838C8346C280913102909184
:1038000032029F838E8389858631B9F41D8A6D8546
:103810007E858F85988920E030E040E050E00E946E
:10382000C503882311F421E02D8B81E03D89832796
:10383000882319F481E0888726C289858731B9F405
:103840001C8A6D857E858F85988920E030E048EC64
:1038500052E40E94C503882311F481E08C8B81E03F
:103860009C898927882319F481E088870CC289857F
:103870008631A9F58E819F81CC01A0E0B0E0019650
:10388000A11DB11DBC01CD010E949705DC01CB013A
:10389000BC01CD012D853E854F8558890E941F02B0
:1038A000DC01CB01BC01CD0120E030E048EC52E46A
:1038B0000E941903DC01CB01BC01CD0120E030E006
:1038C00040E85FE30E94C101DC01CB01BC01CD01F6
:1038D0000E944900DC01CB019D838C83D4C1898582
:1038E000873109F0D0C18E819F81CC01A0E0B0E08A
:1038F000BC01CD010E9497057B018C018E819F81C7
:10390000CC01A0E0B0E00196A11DB11DBC01CD012C
:103910000E949705DC01CB01BC01CD012D853E85C0
:103920004F8558890E941F02DC01CB01BC01CD01EB
:1039300020E030E048EC52EC0E941903DC01CB019E
:103940009C01AD01C801B7010E94F201DC01CB016D
:10395000BC01CD010E944900DC01CB019D838C8319
:1039600092C180912D0290912E029F838E83898532
:10397000863141F58E819F81CC01A0E0B0E0BC0191
:10398000CD010E949705DC01CB01BC01CD012D8545
:103990003E854F8558890E941F02DC01CB01BC0186
:1039A000CD0120E030E048EC52E40E941903DC0134
:1039B000CB01BC01CD010E944900DC01CB019D83FC
:1039C0008C8361C18985873109F05DC18E819F81BA
:1039D000CC01A0E0B0E0BC01CD010E9497057B01C5
:1039E0008C018E819F81CC01A0E0B0E0BC01CD01B3
:1039F0000E949705DC01CB01BC01CD012D853E85E0
:103A00004F8558890E941F02DC01CB01BC01CD010A
:103A100020E030E048EC52EC0E941903DC01CB01BD
:103A20009C01AD01C801B7010E94F201DC01CB018C
:103A3000BC01CD010E944900DC01CB019D838C8338
:103A400022C180912D0290912E029F838E838985C1
:103A5000863141F58E819F81CC01A0E0B0E0BC01B0
:103A6000CD010E949705DC01CB01BC01CD012D8564
:103A70003E854F8558890E941F02DC01CB01BC01A5
:103A8000CD0120E030E048EC52E40E941903DC0153
:103A9000CB01BC01CD010E944900DC01CB019D831B
:103AA0008C83F1C08985873109F0EDC08E819F81BB
:103AB000CC01A0E0B0E0BC01CD010E9497057B01E4
:103AC0008C018E819F81CC01A0E0B0E0BC01CD01D2
:103AD0000E949705DC01CB01BC01CD012D853E85FF
:103AE0004F8558890E941F02DC01CB01BC01CD012A
:103AF00020E030E048EC52EC0E941903DC01CB01DD
:103B00009C01AD01C801B7010E94F201DC01CB01AB
:103B1000BC01CD010E944900DC01CB019D838C8357
:103B2000B2C080912D0290912E029F838E83898551
:103B30008631B9F41B8A6D857E858F85988920E052
:103B400030E040E050E00E94C503882311F421E0FA
:103B50002B8B81E03B898327882319F481E08887B8
:103B600092C089858731B9F41A8A6D857E858F85E3
:103B7000988920E030E048EC52E40E94C503882395
:103B800011F481E08A8B81E09A898927882319F4CE
:103B900081E0888778C089858631A9F58E819F81EB
:103BA000CC01A0E0B0E00196A11DB11DBC01CD018A
:103BB0000E949705DC01CB01BC01CD012D853E851E
:103BC0004F8558890E941F02DC01CB01BC01CD0149
:103BD00020E030E048EC52E40E941903DC01CB0104
:103BE000BC01CD0120E030E040E85FE30E94C1016C
:103BF000DC01CB01BC01CD010E944900DC01CB01FD
:103C00009D838C8340C089858731E9F58E819F81B2
:103C1000CC01A0E0B0E0BC01CD010E9497057B0182
:103C20008C018E819F81CC01A0E0B0E00196A11DA6
:103C3000B11DBC01CD010E949705DC01CB01BC0187
:103C4000CD012D853E854F8558890E941F02DC01DC
:103C5000CB01BC01CD0120E030E048EC52EC0E94E9
:103C60001903DC01CB019C01AD01C801B7010E9421
:103C7000F201DC01CB01BC01CD010E944900DC0155
:103C8000CB019D838C838885882309F03CC08C857B
:103C9000893CD9F4EFE5F0E080818A83F894EBE485
:103CA000F0E08C819D81892F99278083EAE4F0E000
:103CB0008C818083EFE5F0E08A8180838C819D8117
:103CC00090932E0280932D0223C08C858A3C01F5AF
:103CD000EFE5F0E080818983F894E9E4F0E08C81FD
:103CE0009D81892F99278083E8E4F0E08C8180838F
:103CF000EFE5F0E0898180838C819D819093300293
:103D000080932F0205C082E08B8702C082E08B8700
:103D10008B85813019F02B85298B01C0198A8989FF
:103D20006D960FB6F894DEBF0FBECDBFCF91DF9179
:103D30001F910F91FF90EF900895DF93CF9300D0E4
:103D400000D00F92CDB7DEB78A8381E08983F894E3
:103D50008A81282F30E03D832C838C819D818F3395
:103D6000910591F02C813D8120343105A9F08C81A1
:103D70009D818E339105C1F4A9E5B0E0E9E5F0E05D
:103D8000808184608C9312C0A9E5B0E0E9E5F0E0A1
:103D9000808188608C930AC0A9E5B0E0E9E5F0E095
:103DA000808180618C9302C082E0898378948981CC
:103DB000813019F099819B8301C01B828B810F9008
:103DC0000F900F900F900F90CF91DF910895DF9398
:103DD000CF9300D000D00F92CDB7DEB78A8381E0B9
:103DE0008983F8948A81282F30E03D832C838C814D
:103DF0009D818F33910591F02C813D8120343105D7
:103E0000A9F08C819D818E339105C1F4A9E5B0E0C4
:103E1000E9E5F0E080818B7F8C9312C0A9E5B0E0EA
:103E2000E9E5F0E08081877F8C930AC0A9E5B0E0E6
:103E3000E9E5F0E080818F7E8C9302C082E0898387
:103E400078948981813019F099819B8301C01B820C
:103E50008B810F900F900F900F900F90CF91DF916B
:103E60000895DF93CF9300D000D000D0CDB7DEB758
:103E70008C837E836D8381E08B831A828D819E810A
:103E8000009779F125C08981282F30E0C901880F7A
:103E9000991F820F931FFC01E257FE4F90818C8186
:103EA000981799F48981282F30E0C901880F991F4C
:103EB000820F931FFC01E157FE4F8D819E819183FC
:103EC00080831B8281E08A8306C089818F5F89831A
:103ED00089818330C0F28A81882329F482E08B8330
:103EE00002C083E08B838B8126960FB6F894DEBFE9
:103EF0000FBECDBFCF91DF9108951F920F920FB6E5
:103F00000F9211242F933F934F935F936F937F935F
:103F10008F939F93AF93BF93EF93FF93DF93CF93D1
:103F2000CDB7DEB78091950190919601009729F069
:103F3000E0919501F09196010995CF91DF91FF9164
:103F4000EF91BF91AF919F918F917F916F915F9111
:103F50004F913F912F910F900FBE0F901F9018958A
:103F60001F920F920FB60F9211242F933F934F93EE
:103F70005F936F937F938F939F93AF93BF93EF93D1
:103F8000FF93DF93CF93CDB7DEB7809192019091ED
:103F90009301009729F0E0919201F0919301099526
:103FA000CF91DF91FF91EF91BF91AF919F918F9151
:103FB0007F916F915F914F913F912F910F900FBE25
:103FC0000F901F9018951F920F920FB60F92112409
:103FD0002F933F934F935F936F937F938F939F9311
:103FE000AF93BF93EF93FF93DF93CF93CDB7DEB73C
:103FF00080918F0190919001009729F0E0918F01BD
:10400000F09190010995CF91DF91FF91EF91BF91D0
:10401000AF919F918F917F916F915F914F913F9160
:104020002F910F900FBE0F901F901895DF93CF9395
:10403000CDB7DEB72E970FB6F894DEBF0FBECDBF5B
:1040400081E08A83198293C18981282F30E0C901D8
:10405000880F991F820F931FFC01E856FE4F808145
:104060008D3309F082C0A5E5B0E0E5E5F0E08081A0
:104070008C7F8C938981282F30E0C901880F991F8C
:10408000820F931FFC01E756FE4F8081282F30E0FE
:104090003E872D878D859E8588339105B1F02D85CE
:1040A0003E852933310534F48D859E85873391050E
:1040B00031F123C02D853E852933310571F08D8581
:1040C0009E858A33910589F018C0A5E5B0E0E5E545
:1040D000F0E0808181608C9312C0A5E5B0E0E5E559
:1040E000F0E0808182608C930AC0A5E5B0E0E5E550
:1040F000F0E0808183608C9302C082E08A838A81B1
:10410000823009F43AC18981282F30E0C901880F33
:10411000991F820F931FFC01E656FE4F8081282FC6
:1041200030E03C872B878B859C858B33910531F064
:104130002B853C852C33310549F010C0ABE5B0E050
:10414000EBE5F0E0808180648C930AC0ABE5B0E0E1
:10415000EBE5F0E080818F7B8C9302C082E08A8364
:104160008A81823009F409C1FFC08981282F30E09B
:10417000C901880F991F820F931FFC01E856FE4F5B
:1041800080818E3309F07EC0A5E5B0E0E5E5F0E082
:104190008081837F8C938981282F30E0C901880F2B
:1041A000991F820F931FFC01E756FE4F8081282F35
:1041B00030E03A87298789859A8588339105B1F05F
:1041C00029853A852933310534F489859A858733E1
:1041D000910531F123C029853A852933310571F0E4
:1041E00089859A858A33910589F018C0A5E5B0E0E4
:1041F000E5E5F0E0808184608C9312C0A5E5B0E035
:10420000E5E5F0E0808188608C930AC0A5E5B0E028
:10421000E5E5F0E080818C608C9302C082E08A83C7
:104220008A81823009F4A9C08981282F30E0C90130
:10423000880F991F820F931FFC01E656FE4F808165
:10424000282F30E038872F838F8198858B33910515
:1042500031F02F8138852C33310549F010C0ABE5A2
:10426000B0E0EBE5F0E0808180688C937DC0ABE549
:10427000B0E0EBE5F0E080818F778C9375C082E051
:104280008A8372C08981282F30E0C901880F991F65
:10429000820F931FFC01E856FE4F80818F3309F097
:1042A00061C08981282F30E0C901880F991F820FD2
:1042B000931FFC01E756FE4F8081282F30E03E839C
:1042C0002D838D819E818933910531F02D813E8131
:1042D0002A33310549F010C0A4E5B0E0E4E5F0E090
:1042E00080818F7B8C930AC0A4E5B0E0E4E5F0E028
:1042F000808180648C9302C082E08A838A818230CC
:10430000E1F18981282F30E0C901880F991F820FC0
:10431000931FFC01E656FE4F8081282F30E03C833E
:104320002B838B819C818B33910531F02B813C81D8
:104330002C33310549F010C0ABE5B0E0EBE5F0E01F
:10434000808180628C930AC0ABE5B0E0EBE5F0E0E1
:1043500080818F7D8C9302C082E08A838A81823043
:1043600061F002C082E08A8389818F5F89839091A6
:1043700097018981891708F467CE8A81823009F014
:104380001A828A812E960FB6F894DEBF0FBECDBF7B
:10439000CF91DF910895DF93CF9300D0CDB7DEB7F3
:1043A0008A8381E089838A818D3341F4ABE5B0E073
:1043B000EBE5F0E0808180648C9318C08A818E33B5
:1043C00041F4ABE5B0E0EBE5F0E0808180688C93F0
:1043D0000DC08A818F3341F4ABE5B0E0EBE5F0E04E
:1043E000808180628C9302C082E0898389818230DF
:1043F00009F0198289810F900F90CF91DF91089574
:10440000DF93CF9300D0CDB7DEB78A8381E0898375
:104410008A818D3341F4ABE5B0E0EBE5F0E08081DB
:104420008F7B8C9318C08A818E3341F4ABE5B0E06A
:10443000EBE5F0E080818F778C930DC08A818F331C
:1044400041F4ABE5B0E0EBE5F0E080818F7D8C934B
:1044500002C082E089838981823009F019828981D2
:104460000F900F90CF91DF910895DF93CF93CDB749
:10447000DEB729970FB6F894DEBF0FBECDBF8A8393
:104480006B8381E089838A818D3309F043C0A5E580
:10449000B0E0E5E5F0E080818C7F8C938B81282F64
:1044A00030E0398728878885998588339105B9F068
:1044B00028853985293331053CF4888599858733EA
:1044C000910509F496C023C0288539852933310523
:1044D00071F0888599858A33910589F018C0A5E522
:1044E000B0E0E5E5F0E0808181608C9382C0A5E5D5
:1044F000B0E0E5E5F0E0808182608C937AC0A5E5CC
:10450000B0E0E5E5F0E0808181608C9372C082E0EC
:1045100089836FC08A818E3309F043C0A5E5B0E07E
:10452000E5E5F0E08081837F8C938B81282F30E05C
:104530003F832E838E819F8188339105B9F02E8130
:104540003F81293331053CF48E819F81873391056A
:1045500009F44FC023C02E813F812933310571F00A
:104560008E819F818A33910589F018C0A5E5B0E05E
:10457000E5E5F0E0808184608C933BC0A5E5B0E088
:10458000E5E5F0E0808188608C9333C0A5E5B0E07C
:10459000E5E5F0E080818C608C932BC082E089831C
:1045A00028C08A818F3319F58B81282F30E03D8315
:1045B0002C838C819D818933910531F02C813D8143
:1045C0002A33310549F010C0A5E5B0E0E5E5F0E09B
:1045D00080818F7B8C930DC0A5E5B0E0E5E5F0E030
:1045E000808180648C9305C082E0898302C082E070
:1045F00089838981823009F01982898129960FB6D1
:10460000F894DEBF0FBECDBFCF91DF9108951F920A
:104610000F920FB60F9211242F933F934F935F93F6
:104620006F937F938F939F93AF93BF93EF93FF937A
:10463000DF93CF93CDB7DEB78091370290913802E8
:10464000009729F0E0913702F09138020995CF9157
:10465000DF91FF91EF91BF91AF919F918F917F91EA
:104660006F915F914F913F912F910F900FBE0F90DF
:104670001F9018951F920F920FB60F9211242F932F
:104680003F934F935F936F937F938F939F93AF93DA
:10469000BF93EF93FF93DF93CF93CDB7DEB78091B6
:1046A000390290913A02009729F0E0913902F09195
:1046B0003A020995CF91DF91FF91EF91BF91AF91B0
:1046C0009F918F917F916F915F914F913F912F912A
:1046D0000F900FBE0F901F9018951F920F920FB65C
:1046E0000F9211242F933F934F935F936F937F9378
:1046F0008F939F93AF93BF93EF93FF93DF93CF93EA
:10470000CDB7DEB780913B0290913C02009729F033
:10471000E0913B02F0913C020995CF91DF91FF912E
:10472000EF91BF91AF919F918F917F916F915F9129
:104730004F913F912F910F900FBE0F901F901895A2
:10474000DF93CF9300D000D0CDB7DEB78A837C83D0
:104750006B8381E089838B819C81009789F08A81BA
:104760008D538A838A81882F90E0880F991FFC01DE
:10477000E95CFD4F8B819C8191838083198202C00B
:1047800083E0898389810F900F900F900F90CF91D4
:10479000DF910895DF93CF9300D000D0CDB7DEB77F
:1047A0009B838A836C83ECE3F0E080818695882F7D
:1047B00090E0817090708823B1F7E7E5F0E08081A8
:1047C000882F90E0817090708823B9F7EFE5F0E0D2
:1047D00080818983F894EFE3F0E08A819B81892FBF
:1047E00099278083EEE3F0E08A818083EDE3F0E0B7
:1047F0008C818083E29AE19AEFE5F0E08981808301
:1048000080E00F900F900F900F90CF91DF9108955F
:10481000DF93CF9300D000D00F92CDB7DEB79B834C
:104820008A837D836C8381E089838C819D8100975D
:10483000F1F0ECE3F0E080818695882F90E08170C4
:1048400090708823B1F7EFE3F0E08A819B81892F94
:1048500099278083EEE3F0E08A818083E09AEDE39C
:10486000F0E08081EC81FD818083198202C083E0C9
:10487000898389810F900F900F900F900F90CF91A7
:10488000DF910895DF93CF93CDB7DEB780E0CF916E
:10489000DF910895DF93CF9300D000D000D0CDB743
:1048A000DEB78A836B834C8381E089838A81803180
:1048B00008F0B3C08B81883008F0AFC08C818230A3
:1048C00008F0ABC08A81282F30E03E832D836D81B4
:1048D0007E816D307105D1F18D819E818E30910583
:1048E00034F42D813E812C30310571F094C06D81FE
:1048F0007E816E30710509F44BC08D819E818F30B1
:10490000910509F467C087C0AAE3B0E0EAE3F0E0EC
:104910008081482F8B81282F30E081E090E002C019
:10492000880F991F2A95E2F7809548238C81282FBC
:1049300030E08B81882F90E0B90102C0660F771FAD
:104940008A95E2F7CB01842B8C9365C0A7E3B0E096
:10495000E7E3F0E08081482F8B81282F30E081E071
:1049600090E002C0880F991F2A95E2F780954823AE
:104970008C81282F30E08B81882F90E0B90102C014
:10498000660F771F8A95E2F7CB01842B8C9343C087
:10499000A4E3B0E0E4E3F0E08081482F8B81282F8E
:1049A00030E081E090E002C0880F991F2A95E2F77D
:1049B000809548238C81282F30E08B81882F90E0D0
:1049C000B90102C0660F771F8A95E2F7CB01842BED
:1049D0008C9321C0A1E3B0E0E1E3F0E08081482FB7
:1049E0008B81282F30E081E090E002C0880F991F72
:1049F0002A95E2F7809548238C81282F30E08B811F
:104A0000882F90E0B90102C0660F771F8A95E2F700
:104A1000CB01842B8C93198202C082E08983898127
:104A200026960FB6F894DEBF0FBECDBFCF91DF91B3
:104A30000895DF93CF9300D000D000D0CDB7DEB77C
:104A40008A836B834C8381E089838A81803108F07B
:104A5000B6C08B81883008F0B2C08C81823020F0E3
:104A60008C81823008F0ABC08A81282F30E03E83F1
:104A70002D836D817E816D307105D1F18D819E8197
:104A80008E30910534F42D813E812C30310571F04A
:104A900094C06D817E816E30710509F44BC08D81AB
:104AA0009E818F30910509F467C087C0ABE3B0E009
:104AB000EBE3F0E08081482F8B81282F30E081E00C
:104AC00090E002C0880F991F2A95E2F7809548234D
:104AD0008C81282F30E08B81882F90E0B90102C0B3
:104AE000660F771F8A95E2F7CB01842B8C9365C004
:104AF000A8E3B0E0E8E3F0E08081482F8B81282F25
:104B000030E081E090E002C0880F991F2A95E2F71B
:104B1000809548238C81282F30E08B81882F90E06E
:104B2000B90102C0660F771F8A95E2F7CB01842B8B
:104B30008C9343C0A5E3B0E0E5E3F0E08081482F2B
:104B40008B81282F30E081E090E002C0880F991F10
:104B50002A95E2F7809548238C81282F30E08B81BD
:104B6000882F90E0B90102C0660F771F8A95E2F79F
:104B7000CB01842B8C9321C0A2E3B0E0E2E3F0E010
:104B80008081482F8B81282F30E081E090E002C0A7
:104B9000880F991F2A95E2F7809548238C81282F4A
:104BA00030E08B81882F90E0B90102C0660F771F3B
:104BB0008A95E2F7CB01842B8C93198202C082E0A4
:104BC0008983898126960FB6F894DEBF0FBECDBFCC
:104BD000CF91DF910895DF93CF9300D000D00F9253
:104BE000CDB7DEB78A836B8381E089838A81803188
:104BF00008F075C08B81883008F071C08A81282F39
:104C000030E03D832C838C819D818D30910551F165
:104C10002C813D812E30310534F48C819D818C3086
:104C2000910561F05AC02C813D812E30310571F122
:104C30008C819D818F309105E9F14FC0ABE3B0E0ED
:104C4000EBE3F0E08081482F8B81282F30E081E07A
:104C500090E0022E02C0880F991F0A94E2F7842781
:104C60008C933BC0ABE3B0E0EBE3F0E08081482FF6
:104C70008B81282F30E081E090E0022E02C0880F67
:104C8000991F0A94E2F784278C9327C0ABE3B0E026
:104C9000EBE3F0E08081482F8B81282F30E081E02A
:104CA00090E0022E02C0880F991F0A94E2F7842731
:104CB0008C9313C0ABE3B0E0EBE3F0E08081482FCE
:104CC0008B81282F30E081E090E0022E02C0880F17
:104CD000991F0A94E2F784278C93198202C082E01C
:104CE000898389810F900F900F900F900F90CF9133
:104CF000DF910895DF93CF93CDB7DEB727970FB637
:104D0000F894DEBF0FBECDBF8A836B835D834C8377
:104D100081E089838C819D81009709F47DC08A811F
:104D2000803108F076C08B81883008F072C08A81AB
:104D3000282F30E03F832E834E815F814D30510517
:104D400059F18E819F818E30910534F42E813F81FF
:104D50002C30310569F05BC04E815F814E305105CA
:104D600079F18E819F818F30910509F43DC04FC04C
:104D7000E9E3F0E08081282F30E08B81882F90E0FC
:104D8000A90102C0559547958A95E2F7CA0181703D
:104D9000EC81FD8180833BC0E6E3F0E08081282F39
:104DA00030E08B81882F90E0A90102C0559547958E
:104DB0008A95E2F7CA018170EC81FD81808327C06A
:104DC000E3E3F0E08081282F30E08B81882F90E0B2
:104DD000A90102C0559547958A95E2F7CA018170ED
:104DE000EC81FD81808313C0E0E3F0E08081282F17
:104DF00030E08B81882F90E0A90102C0559547953E
:104E00008A95E2F7CA018170EC81FD818083198265
:104E100005C082E0898302C083E089838981279667
:104E20000FB6F894DEBF0FBECDBFCF91DF910895CE
:104E3000DF93CF930F92CDB7DEB781E08983A6E2EF
:104E4000B0E0E6E2F0E08081887F8C93A6E2B0E0FB
:104E5000E6E2F0E0808186608C93A7E2B0E0E7E2D2
:104E6000F0E080818F738C93A7E2B0E0E7E2F0E09E
:104E7000808180688C93A7E2B0E0E7E2F0E0808177
:104E800080628C93A7E2B0E0E7E2F0E08081807E70
:104E90008C93A7E2B0E0E7E2F0E080818C93A6E299
:104EA000B0E0E6E2F0E0808188608C93A0E5B0E0BD
:104EB000E0E5F0E08081887F8C93A0E5B0E0E0E55C
:104EC000F0E080818E6D8C93A6E2B0E0E6E2F0E047
:104ED00080818F7D8C93A6E2B0E0E6E2F0E08081F5
:104EE00080688C938981823009F0198289810F90C2
:104EF000CF91DF910895DF93CF9300D0CDB7DEB788
:104F00008A8381E08983A6E2B0E0E6E2F0E0808176
:104F1000887F8C938A81893778F08A81882364F02E
:104F2000A6E2B0E0E6E2F0E08081982F8A8188571F
:104F3000892B8C93198202C082E0898389810F902A
:104F40000F90CF91DF910895DF93CF9300D0CDB72D
:104F5000DEB78A8381E08983A7E2B0E0E7E2F0E090
:104F600080818F738C938A818823DCF48A818338D3
:104F7000C0F4A7E2B0E0E7E2F0E08081282F8A8168
:104F8000882F90E08058904000249695879507944C
:104F9000969587950794982F802D822B8C93198254
:104FA00002C082E0898389810F900F90CF91DF91B9
:104FB0000895DF93CF9300D0CDB7DEB78A8381E029
:104FC00089838A818538B0F08A81853A98F4A7E28E
:104FD000B0E0E7E2F0E08081807E8C93A7E2B0E071
:104FE000E7E2F0E08081982F8A818558892B8C93A5
:104FF000198202C082E0898389810F900F90CF913E
:10500000DF910895DF93CF93CDB7DEB7369A80E076
:10501000CF91DF910895DF93CF9300D0CDB7DEB766
:105020008A8381E089838A81873AC0F08A818F3AB6
:10503000A8F43598A0E5B0E0E0E5F0E08081887F55
:105040008C93A0E5B0E0E0E5F0E08081982F8A81C4
:10505000875A892B8C93359A198202C082E0898302
:1050600089810F900F90CF91DF910895DF93CF93B7
:10507000CDB7DEB7359880E0CF91DF910895DF930B
:10508000CF9300D00F92CDB7DEB79B838A8381E0A8
:1050900089838A819B81009711F1E4E2F0E08081AD
:1050A0008295869586958370882F90E0EA81FB81B2
:1050B00091838083EA81FB8120813181E5E2F0E008
:1050C0008081882F90E0880F991F880F991F822B6D
:1050D000932BEA81FB8191838083198202C083E054
:1050E000898389810F900F900F90CF91DF91089560
:1050F000DF93CF9300D00F92CDB7DEB79B838A8327
:1051000081E089838A819B81009741F0E5E2F0E0AC
:105110008081EA81FB818083198202C083E08983D8
:1051200089810F900F900F90CF91DF910895DF93B9
:10513000CF9300D00F92CDB7DEB79B838A8381E0F7
:105140008983E6E2F0E0808182958F70882F90E07D
:10515000817090700097A9F38A819B81009711F16B
:10516000E4E2F0E080818295869586958370882FB1
:1051700090E0EA81FB8191838083EA81FB81208139
:105180003181E5E2F0E08081882F90E0880F991F5F
:10519000880F991F822B932BEA81FB819183808357
:1051A000198202C083E08983A6E2B0E0E6E2F0E083
:1051B000808180618C9389810F900F900F90CF91A7
:1051C000DF910895DF93CF9300D00F92CDB7DEB774
:1051D0009B838A8381E08983E6E2F0E08081829587
:1051E0008F70882F90E0817090700097A9F38A816A
:1051F0009B81009741F0E5E2F0E08081EA81FB814C
:105200008083198202C083E08983E6E2F0E0808136
:1052100082958F70882F90E0817090700097A9F32D
:1052200089810F900F900F90CF91DF910895DF93B8
:10523000CF9300D00F92CDB7DEB79B838A8381E0F6
:1052400089838A819B81009741F08A819B81909319
:105250003E0280933D02198202C083E089838981E6
:105260000F900F900F90CF91DF910895DF93CF9320
:10527000CDB7DEB7A6E2B0E0E6E2F0E0808180687C
:105280008C9380E0CF91DF910895DF93CF93CDB7DA
:10529000DEB7A6E2B0E0E6E2F0E080818F778C93A3
:1052A00080E0CF91DF910895DF93CF93CDB7DEB744
:1052B000A6E2B0E0E6E2F0E0808180688C9380E0D6
:1052C000CF91DF910895DF93CF93CDB7DEB7A6E2FC
:1052D000B0E0E6E2F0E080818F778C9380E0CF91C0
:1052E000DF9108951F920F920FB60F9211242F9302
:1052F0003F934F935F936F937F938F939F93AF935E
:10530000BF93EF93FF93DF93CF93CDB7DEB7809139
:105310003D0290913E02009729F0E0913D02F0910C
:105320003E020995CF91DF91FF91EF91BF91AF912F
:105330009F918F917F916F915F914F913F912F91AD
:105340000F900FBE0F901F901895DF93CF9300D052
:1053500000D0CDB7DEB781E08A8351C08981282F84
:1053600030E0C901880F991F820F931FFC01EE5591
:10537000FE4F40818981282F30E0C901880F991F95
:10538000820F931FFC01ED55FE4F9081842F692FF2
:1053900040E00E944A248B838981282F30E0C90194
:1053A000880F991F820F931FFC01EE55FE4F50810D
:1053B0008981282F30E0C901880F991F820F931F20
:1053C000FC01ED55FE4F40818981282F30E0C90155
:1053D000880F991F820F931FFC01EC55FE4F90819F
:1053E000852F642F492F0E9419258C838B81882358
:1053F00061F48C81882349F489818F5F898390913E
:10540000A1018981891708F4A9CF8B81882321F410
:105410008C81882309F41A828A810F900F900F9053
:105420000F90CF91DF910895DF93CF9300D000D0FC
:10543000CDB7DEB78A837C836B8381E089838A81E1
:10544000895C8A839091A1018A81891708F58A81F4
:10545000282F30E0C901880F991F820F931FFC018C
:10546000EE55FE4F40818A81282F30E0C901880F18
:10547000991F820F931FFC01ED55FE4F90812B81E8
:105480003C81842F692FA9010E947A26898302C05A
:1054900082E0898389810F900F900F900F90CF91B8
:1054A000DF910895DF93CF9300D0CDB7DEB781E0D1
:1054B0008A83198237C08981882F90E0880F991FCD
:1054C000FC01E455FE4F20818981882F90E0880FF0
:1054D000991FFC01E355FE4F9081822F692F41E017
:1054E0000E944A248823C1F48981882F90E0880F84
:1054F000991FFC01E455FE4F20818981882F90E09F
:10550000880F991FFC01E355FE4F9081822F692F70
:1055100040E00E9419258A838A81882341F4898189
:105520008F5F89839091AB018981891720F28A81ED
:10553000882399F48091B4019091B501692F41E0DD
:105540000E944A24882349F48091B4019091B501C6
:10555000692F41E00E9419258A838A81882399F462
:105560008091B6019091B701692F41E00E944A24D1
:10557000882349F48091B6019091B701692F40E0EA
:105580000E9419258A838A81882399F48091B80121
:105590009091B901692F41E00E944A24882349F47F
:1055A0008091B8019091B901692F40E00E941925BE
:1055B0008A838A810F900F90CF91DF910895DF93B6
:1055C000CF930F92CDB7DEB7898348E350E0A8E3CD
:1055D000B0E0E8E3F0E080818F708C938C91282F0D
:1055E0008981882F90E082959295907F9827807F7F
:1055F0009827822BFA01808380E00F90CF91DF9172
:105600000895DF93CF9300D0CDB7DEB78A8381E0D2
:1056100089838A81882319F08A81813051F48091AD
:10562000B4019091B501692F4A810E94192589839F
:1056300002C082E0898389810F900F90CF91DF9122
:105640000895DF93CF9300D000D0CDB7DEB78A8323
:105650007C836B8381E089838A81882F90E0AC0111
:105660004D5E5F4F8A81282F30E0CA01B9010E9448
:10567000C234CB01EB81FC818083198289810F9038
:105680000F900F900F90CF91DF910895DF93CF93FC
:1056900000D0CDB7DEB78A8381E089838A818B30E1
:1056A00051F48091B6019091B701692F41E00E94B9
:1056B000192589830FC08A818C3051F48091B801FB
:1056C0009091B901692F41E00E941925898302C098
:1056D00082E0898389810F900F90CF91DF910895A7
:1056E000DF93CF9300D0CDB7DEB78A8381E0898383
:1056F0008A818B3051F48091B6019091B701692F66
:1057000040E00E94192589830FC08A818C3051F4B2
:105710008091B8019091B901692F40E00E9419254C
:10572000898302C082E0898389810F900F90CF9195
:10573000DF910895DF93CF9300D000D0CDB7DEB7CF
:1057400081E08A83198239C08981882F90E0880F8F
:10575000991FFC01E554FE4F20818981882F90E03C
:10576000880F991FFC01E454FE4F9081822F692F0E
:1057700041E00E944A248B838981882F90E0880F22
:10578000991FFC01E554FE4F20818981882F90E00C
:10579000880F991FFC01E454FE4F9081822F692FDE
:1057A00040E00E9419258C838B81882359F48C81D9
:1057B000882341F489818F5F89839091BA0189811F
:1057C000891710F28B81882321F48C81882309F4B6
:1057D0001A828A810F900F900F900F90CF91DF91D6
:1057E0000895DF93CF9300D00F92CDB7DEB78A83B1
:1057F0006B8381E089838A818E518A839091BA017B
:105800008A818917F8F48B81813019F08B81882384
:10581000C9F48A81882F90E0880F991FFC01E55414
:10582000FE4F20818A81882F90E0880F991FFC010C
:10583000E454FE4F9081822F692F4B810E941925DD
:10584000898302C082E0898389810F900F900F9035
:10585000CF91DF910895DF93CF9300D000D0CDB7E3
:10586000DEB781E08A8319820E9457118B8380E71B
:1058700092E00E94F0158C83198203C089818F5FAA
:1058800089838981823058F48981282F30E0CE01C4
:105890000396FC01E20FF31F8081882379F389814D
:1058A000823061F48FE065E041E00E944A248B83FE
:1058B0008FE065E040E00E9419258C83198203C0C7
:1058C00089818F5F89838981823058F48981282F6B
:1058D00030E0CE010396FC01E20FF31F80818823A4
:1058E00079F38981823061F48FE066E041E00E94C3
:1058F0004A248B838FE066E040E00E9419258C8368
:10590000198203C089818F5F89838981823058F42D
:105910008981282F30E0CE010396FC01E20FF31FAE
:105920008081882379F38981823041F489EC40E0D9
:1059300050E060E070E00E9407178A838A810F9030
:105940000F900F900F90CF91DF910895DF93CF9339
:10595000CDB7DEB7969A80E0CF91DF910895DF93BF
:10596000CF93CDB7DEB7969880E0CF91DF910895C1
:10597000EF92FF920F931F93DF93CF9300D000D04D
:1059800000D0CDB7DEB78E8381E08D838E81819587
:105990008E838E8185304CF080E090E0A0E0B0E016
:1059A00089839A83AB83BC83A5C08E8188234CF402
:1059B00080E090E0A0EAB2E489839A83AB83BC8361
:1059C00099C080914302982F8E81890F8093430262
:1059D0008E81992787FD9095A92FB92FBC01CD0104
:1059E0000E94E504DC01CB01BC01CD0120E030E0E8
:1059F00040EA50E40E941F02DC01CB017C018D01D2
:105A000080914302992787FD9095A92FB92FBC015A
:105A1000CD010E94E5049B01AC01CA01B9010E94BD
:105A2000F201DC01CB019C01AD01C801B7010E946C
:105A3000F201DC01CB017C018D018E81282F3327FF
:105A400027FD309580914402992787FD9095A90103
:105A5000481B590BCA01AA2797FDA095BA2FBC0174
:105A6000CD010E94E5049B01AC01CA01B9010E946D
:105A7000F201DC01CB019C01AD01C801B7010E941C
:105A8000F201DC01CB019C01AD0160E070E080EA35
:105A900092E40E94C101DC01CB0189839A83AB832C
:105AA000BC8369817A818B819C8120E030E040E079
:105AB00050E00E94850488234CF480E090E0A0E050
:105AC000B0E089839A83AB83BC8314C069817A81F7
:105AD0008B819C8120E030E040EA52E40E94250462
