:100000000C942A000C9447000C9447000C94470071
:100010000C94F20F0C9425100C9447000C94E41EE1
:100020000C94171F0C944A1F0C9458100C948B10AE
:100030000C9447000C9447000C9447000C94470024
:100040000C946F250C9447000C9447000C944700C7
:100050000C94470011241FBECFE5D8E0DEBFCDBF12
:1000600011E0A0E6B0E0E8E3F0E602C005900D92F2
:10007000A03DB107D9F712E0A0EDB1E001C01D929B
:10008000A834B107E1F70E94622B0C941A300C944B
:100090000000EF92FF920F931F937B018C0120E0F1
:1000A00030E040E05FE40E94F50388238CF0C80153
:1000B000B70120E030E040E05FE40E94C1010E940F
:1000C00083049B01AC01205030404040504806C0A2
:1000D000C801B7010E9483049B01AC01B901CA01A8
:1000E0001F910F91FF90EF900895A0E0B0E0EBE733
:1000F000F0E00C94E32FDC012B01FA019C9192308B
:1001000008F439C1EB018881823008F433C194309E
:1001100069F4843009F02FC111969C91119789815F
:10012000981709F428C1A0E6B0E025C1843009F48D
:1001300021C18230A9F4923009F01DC19A01AD01AC
:1001400088E0EA010990AE01E90109929E0181501F
:10015000C1F7E201898111969C918923818308C1AD
:10016000923009F407C112962D903C901397EB0141
:100170008A819B811496AD90BD90CD90DC901797AD
:10018000EC80FD800E811F819101281B390BB90184
:1001900037FF04C066277727621B730B6032710537
:1001A0000CF061C0121613066CF537014801062EDB
:1001B00004C096948794779467940A94D2F721E0C8
:1001C00030E040E050E004C0220F331F441F551FB1
:1001D0006A95D2F721503040404050402E213F21B7
:1001E00040235123211531054105510521F021E01E
:1001F00030E040E050E079018A01E628F72808293C
:1002000019293CC0232BD1F1260E371E350146019A
:10021000062E04C096948794779467940A94D2F734
:1002200021E030E040E050E004C0220F331F441FC3
:10023000551F6A95D2F721503040404050402A2146
:100240003B214C215D21211531054105510521F04E
:1002500021E030E040E050E059016A01A628B728CB
:10026000C828D9280BC0821593052CF01C01AA249C
:10027000BB24650103C0EE24FF24870111969C91E5
:10028000D20111968C91981709F445C0992339F041
:10029000A80197012A193B094C095D0906C0A6016E
:1002A00095012E193F09400B510B57FD08C01182D3
:1002B0003382228224833583468357831DC081E0A5
:1002C00081833382228288279927DC01821B930B4A
:1002D000A40BB50B84839583A683B7830DC0220F2F
:1002E000331F441F551F24833583468357838281E0
:1002F000938101979383828324813581468157813D
:10030000DA01C9010197A109B1098F5F9F4FAF4F72
:10031000BF4328F30BC0918333822282EA0CFB1C7B
:100320000C1D1D1DE482F5820683178383E0808304
:10033000248135814681578157FF1AC0C901AA27F8
:1003400097FDA095BA2F81709070A070B0705695EF
:10035000479537952795822B932BA42BB52B848318
:100360009583A683B7838281938101969383828349
:10037000DF0101C0D201CD01CDB7DEB7E2E10C94BF
:10038000FF2FA0E2B0E0E7ECF1E00C94EF2F6983DF
:100390007A838B839C832D833E834F835887E9E048
:1003A000EE2EF12CEC0EFD1ECE010196B7010E943F
:1003B00074068E010F5E1F4FCE010596B8010E9494
:1003C00074068A8991E089278A8BC701B801AE013A
:1003D000475E5F4F0E9475000E949F05A096E6E071
:1003E0000C940B30A0E2B0E0E8EFF1E00C94EF2FBA
:1003F00069837A838B839C832D833E834F835887C5
:10040000F9E0EF2EF12CEC0EFD1ECE010196B701A6
:100410000E9474068E010F5E1F4FCE010596B80133
:100420000E947406C701B801AE01475E5F4F0E948B
:1004300075000E949F05A096E6E00C940B30A0E2A8
:10044000B0E0E5E2F2E00C94E32F69837A838B83DA
:100450009C832D833E834F835887CE010196BE0136
:10046000675F7F4F0E947406CE010596BE016F5EE6
:100470007F4F0E9474069985923088F08989823076
:10048000C8F0943019F4823051F404C0843029F457
:10049000923081F480E690E0C6C0923049F420E0CA
:1004A0009A858A89981321E02A87CE010996BBC0D4
:1004B000823049F420E09A858A89981321E02A8BBA
:1004C000CE014196B0C02D843E844F8458886D88FB
:1004D0007E888F88988CEE24FF248701AA24BB2471
:1004E000650140E050E060E070E0E0E0F0E0C10174
:1004F00081709070892BE9F0E60CF71C081D191D1E
:100500009A01AB012A0D3B1D4C1D5D1D80E090E062
:10051000A0E0B0E0E614F7040805190520F481E036
:1005200090E0A0E0B0E0BA01A901480F591F6A1F8E
:100530007B1FAA0CBB1CCC1CDD1C97FE08C081E0F5
:1005400090E0A0E0B0E0A82AB92ACA2ADB2A3196B6
:10055000E032F10549F0660C771C881C991C569412
:10056000479437942794C3CFFA85EA892B893C892D
:100570008B859C85280F391F2E5F3F4F17C0CA01FE
:1005800081709070892B61F016950795F794E79428
:1005900080E090E0A0E0B0E8E82AF92A0A2B1B2BC3
:1005A00076956795579547952F5F3F4F77FDE7CF36
:1005B0000CC0440F551F661F771F17FD4160EE0CDE
:1005C000FF1C001F111F21503040403090E05907A0
:1005D00090E0690790E4790760F32B8F3C8FDB0193
:1005E000CA018F779070A070B07080349105A1051A
:1005F000B10561F447FD0AC0E114F10401051105DC
:1006000029F0405C5F4F6F4F7F4F40781A8EFE1786
:1006100011F081E08A8F4D8F5E8F6F8F78A383E01A
:10062000898FCE0149960E949F05A096E2E10C9425
:10063000FF2FA8E1B0E0EFE1F3E00C94EB2F69832A
:100640007A838B839C832D833E834F835887B9E0C5
:10065000EB2EF12CEC0EFD1ECE010196B7010E948F
:1006600074068E010F5E1F4FCE010596B8010E94E1
:1006700074062985223008F47EC03989323010F49E
:10068000B8017CC08A859A8989278A87243011F02D
:10069000223031F4231709F06EC060E670E06EC0BE
:1006A000343039F41D861E861F86188A1C861B86E8
:1006B00004C0323021F484E08987B7015FC02B8504
:1006C0003C858B899C89281B390B3C872B87ED84C3
:1006D000FE840F851889AD88BE88CF88D88CEA142F
:1006E000FB040C051D0540F4EE0CFF1C001F111F40
:1006F000215030403C872B8720E030E040E050E044
:1007000080E090E0A0E0B0E460E070E0EA14FB0478
:100710000C051D0540F0282B392B4A2B5B2BEA18C2
:10072000FB080C091D09B695A79597958795EE0CC2
:10073000FF1C001F111F6F5F7F4F6F31710531F775
:10074000DA01C9018F779070A070B0708034910584
:10075000A105B10561F427FD0AC0E114F10401050A
:10076000110529F0205C3F4F4F4F5F4F20782D87B8
:100770003E874F87588BBE01675F7F4FCB010E943A
:100780009F056896EAE00C940730A8E1B0E0EBEC36
:10079000F3E00C94EF2F69837A838B839C832D8302
:1007A0003E834F83588789E0E82EF12CEC0EFD1E26
:1007B000CE010196B7010E9474068E010F5E1F4F95
:1007C000CE010596B8010E9474068985823040F0FA
:1007D0008989823028F0C701B8010E94EC0601C067
:1007E00081E06896E6E00C940B30A8E1B0E0EBEF16
:1007F000F3E00C94EF2F69837A838B839C832D83A2
:100800003E834F83588789E0E82EF12CEC0EFD1EC5
:10081000CE010196B7010E9474068E010F5E1F4F34
:10082000CE010596B8010E9474068985823040F099
:100830008989823028F0C701B8010E94EC0601C006
:100840008FEF6896E6E00C940B30A8E0B0E0EBE2A6
:10085000F4E00C94EC2F9B01AC0183E08983DA0176
:10086000C9018827B7FD83959927AA27BB27B82EEA
:10087000211531054105510519F482E089833AC0FB
:100880008823A9F0203080E0380780E0480780E81E
:10089000580729F460E070E080E09FEC30C0EE245F
:1008A000FF248701E21AF30A040B150B02C0790139
:1008B0008A018EE1C82ED12CDC82CB82ED82FE82B1
:1008C0000F831887C801B7010E94500501971816B9
:1008D000190684F4082E04C0EE0CFF1C001F111F23
:1008E0000A94D2F7ED82FE820F831887C81AD90ABC
:1008F000DC82CB82BA82CE0101960E949F052896A7
:10090000E9E00C940830ACE0B0E0E9E8F4E00C94E5
:10091000F32F69837A838B839C83CE010196BE017A
:100920006B5F7F4F0E9474068D81823061F182304F
:1009300050F1843021F48E81882351F12EC02F8113
:10094000388537FD20C06E812F3131051CF06623BC
:10095000F9F023C08EE190E0821B930B29853A8544
:100960004B855C8504C056954795379527958A95A4
:10097000D2F76623B1F050954095309521953F4FC1
:100980004F4F5F4F0EC020E030E040E050E009C024
:100990002FEF3FEF4FEF5FE704C020E030E040E093
:1009A00050E8B901CA012C96E2E00C940F30A8E09F
:1009B000B0E0EDEDF4E00C94EB2F7B018C016115C0
:1009C00071058105910519F482E0898360C083E097
:1009D00089838EE1C82ED12CDC82CB82ED82FE820F
:1009E0000F831887C801B7010E945005FC01319799
:1009F000F7FF3BC0222733272E1B3F0B570168010F
:100A0000022E04C0D694C794B794A7940A94D2F740
:100A100040E050E060E070E081E090E0A0E0B0E015
:100A200004C0880F991FAA1FBB1F2A95D2F70197F0
:100A3000A109B1098E219F21A023B1230097A1050F
:100A4000B10521F041E050E060E070E04A295B2907
:100A50006C297D294D835E836F8378878EE190E0DA
:100A60008E1B9F0B9C838B8312C0309781F00E2EC0
:100A700004C0EE0CFF1C001F111F0A94D2F7ED8278
:100A8000FE820F831887CE1ADF0ADC82CB821A829D
:100A9000CE0101960E949F052896EAE00C9407304B
:100AA000EF92FF920F931F937B018C0180E0E81679
:100AB00080E0F80681E0080780E0180788F48FEFEF
:100AC000E816F1040105110531F028F088E090E006
:100AD000A0E0B0E017C080E090E0A0E0B0E012C07D
:100AE00080E0E81680E0F80680E0080781E018075B
:100AF00028F088E190E0A0E0B0E004C080E190E060
:100B0000A0E0B0E020E230E040E050E0281B390BEC
:100B10004A0B5B0B04C016950795F794E7948A95EA
:100B2000D2F7F701E859FF4F8081281B31094109AD
:100B30005109C9011F910F91FF90EF900895DF9225
:100B4000EF92FF920F931F93FC01E480F5800681E2
:100B50001781D1808081823048F480E090E0A0E16C
:100B6000B0E0E82AF92A0A2B1B2BA5C0843009F42F
:100B70009FC0823021F4EE24FF24870105C0E114D8
:100B8000F1040105110519F4E0E0F0E096C062817E
:100B900073819FEF623879070CF05BC022E83FEF6A
:100BA000261B370B2A3131052CF020E030E040E0E5
:100BB00050E02AC0B801A701022E04C076956795BF
:100BC000579547950A94D2F781E090E0A0E0B0E015
:100BD00004C0880F991FAA1FBB1F2A95D2F701973F
:100BE000A109B1098E219F21A023B1230097A1055E
:100BF000B10521F081E090E0A0E0B0E09A01AB0106
:100C0000282B392B4A2B5B2BDA01C9018F77907087
:100C1000A070B07080349105A105B10539F427FFAB
:100C200009C0205C3F4F4F4F5F4F04C0215C3F4FD6
:100C30004F4F5F4FE0E0F0E02030A0E03A07A0E047
:100C40004A07A0E45A0710F0E1E0F0E079018A01D8
:100C500027C06038710564F5FB01E158FF4FD801EA
:100C6000C7018F779070A070B07080349105A10596
:100C7000B10539F4E7FE0DC080E490E0A0E0B0E0FB
:100C800004C08FE390E0A0E0B0E0E80EF91E0A1F78
:100C90001B1F17FF05C016950795F794E79431962B
:100CA00087E016950795F794E7948A95D1F705C0E4
:100CB000EE24FF248701EFEFF0E06E2F67956627A3
:100CC0006795902F9F77D794DD24D7948E2F8695A4
:100CD000492F462B582F5D29B701CA011F910F914B
:100CE000FF90EF90DF900895FC01DB01408151817E
:100CF0002281622F6F7770E0221F2227221F9381AB
:100D0000892F880F822B282F30E0991F9927991F50
:100D100011969C93119721153105A9F5411551059F
:100D20006105710511F482E037C082E89FEF1396E8
:100D30009C938E9312979A01AB0167E0220F331FA9
:100D4000441F551F6A95D1F783E08C930DC0220F85
:100D5000331F441F551F12968D919C911397019735
:100D600013969C938E931297203080E0380780E092
:100D7000480780E4580758F314962D933D934D93FC
:100D80005C93179708952F3F310579F4411551056C
:100D90006105710519F484E08C93089564FF03C024
:100DA00081E08C9312C01C9210C02F5730401396D4
:100DB0003C932E93129783E08C9387E0440F551F4A
:100DC000661F771F8A95D1F7706414964D935D93D3
:100DD0006D937C93179708951F93DC01FB019C9101
:100DE000923008F447C08081823008F443C09430C8
:100DF00051F411961C91843099F58181682F70E02F
:100E0000611B71093FC0843021F0923031F482308F
:100E1000B9F18181882389F12DC011961C91119718
:100E20008230F1F081811817D9F412962D913C91FE
:100E30001397828193818217930794F028173907BB
:100E4000BCF014968D919D910D90BC91A02D2481A4
:100E5000358146815781281739074A075B0718F4FF
:100E6000112341F00AC082179307A407B50740F485
:100E7000112319F061E070E005C06FEF7FEF02C051
:100E800060E070E0CB011F910895DF93CF93CDB761
:100E9000DEB70E94500988EC61E10E946E0C88EC7C
:100EA00064E10E94F30C88EC6CE90E947B0E8823BD
:100EB00099F488EC60E20E94600D81E08093180252
:100EC00081E0809319022DEF38E08DE3B9010E9493
:100ED000A60F8DE30E94EA0ECF91DF910895EF9265
:100EE0000F931F93DF93CF93CDB7DEB729970FB63C
:100EF000F894DEBF0FBECDBF9A8389837C836B835A
:100F00004D832E8318870F83E98689819A81009704
:100F100009F452C08D81893008F04EC08D81882F30
:100F200090E0880F991F880F991F880F991FFC0167
:100F3000E053FE4F89819A81918380838D81882F30
:100F400090E0880F991F880F991F0196880F991FAD
:100F5000FC01E053FE4F8B819C81918380838D81C6
:100F6000882F90E0880F991F0196880F991F880F8E
:100F7000991FFC01E053FE4F8F81988591838083F8
:100F80008D81882F90E0880F991F880F991F880FF7
:100F9000991FFC01EA52FE4F8E8180838D81882F3C
:100FA00090E0880F991F880F991F880F991FFC01E7
:100FB000E952FE4F8985808329960FB6F894DEBFEB
:100FC0000FBECDBFCF91DF911F910F91EF9008958C
:100FD000EF92FF920F931F93DF93CF9300D000D037
:100FE0000F92CDB7DEB71A821B821C821D827894C5
:100FF00020911B0230911C0240911D0250911E0253
:101000008A819B81AC81BD8182179307A407B507B4
:1010100078F780911B0290911C02A0911D02B09163
:101020001E028A839B83AC83BD8388E0898381C051
:101030008981992787FD9095880F991F880F991F9F
:10104000880F991FFC01E053FE4F8081918100972A
:1010500009F46CC08981992787FD9095880F991FA5
:10106000880F991F880F991FFC01EA52FE4F80815B
:10107000873109F05BC0E0901B02F0901C020091E8
:101080001D0210911E028981992787FD9095880F76
:10109000991F0196880F991F880F991FFC01E05333
:1010A000FE4F808191819C0140E050E0C801B70172
:1010B0000E94C12FDC01CB019C01AD0189819927E0
:1010C00087FD9095880F991F880F991F880F991F8A
:1010D000FC01E952FE4F8081882F90E0A0E0B0E053
:1010E000281739074A075B0709F58981992787FD82
:1010F0009095880F991F880F991F880F991FFC01E1
:10110000E053FE4F208131818981992787FD909599
:10111000880F991F880F991F0196880F991FFC014E
:10112000E053FE4F80819181F901099589818150B9
:101130008983898188230CF07BCF5ACFDF93CF93AB
:101140000F92CDB7DEB7898389818930E0F4898138
:10115000882F90E0880F991F880F991F880F991F7B
:10116000FC01E053FE4F118210828981882F90E0AC
:10117000880F991F880F991F880F991FFC01EA5249
:10118000FE4F81E180830F90CF91DF910895DF932F
:10119000CF930F92CDB7DEB789838981893070F400
:1011A0008981882F90E0880F991F880F991F880FD9
:1011B000991FFC01EA52FE4F88E380830F90CF9184
:1011C000DF910895DF93CF930F92CDB7DEB7898378
:1011D0008981893070F48981882F90E0880F991F68
:1011E000880F991F880F991FFC01EA52FE4F87E173
:1011F00080830F90CF91DF910895DF93CF93CDB788
:10120000DEB78091190281508093190280911902F2
:101210008823B9F480911B0290911C02A0911D02B9
:10122000B0911E020196A11DB11D80931B029093E7
:101230001C02A0931D02B0931E028091180280939D
:101240001902CF91DF910895DF93CF93CDB7DEB729
:10125000809119028150809319028091190288238C
:10126000E1F4E2E5F0E080911A02808380911B02B4
:1012700090911C02A0911D02B0911E020196A11D29
:10128000B11D80931B0290931C02A0931D02B0938A
:101290001E028091180280931902CF91DF91089568
:1012A000DF93CF93CDB7DEB728970FB6F894DEBFA4
:1012B0000FBECDBF81E08A831982B8C18981282FF2
:1012C00030E0C901880F991F880F991F820F931F63
:1012D000FC01E559FE4F8081883C09F0C8C0A9E5B2
:1012E000B0E0E9E5F0E080818C7F8C93E3E5F0E00D
:1012F0001082ECE5F0E010828981282F30E0C901EE
:10130000880F991F880F991F820F931FFC01E459C2
:10131000FE4F90819E012D5F3F4F88EC692FA90100
:101320000E942D0BDC01CB018093210290932202BD
:10133000A0932302B0932402A3E5B0E0E3E5F0E03C
:1013400090818B81892B8C93A3E5B0E0E3E5F0E0FD
:101350008081482F8981282F30E0C901880F991F8B
:10136000880F991F820F931FFC01E359FE4F808164
:10137000882F90E0449782959295907F9827807F60
:101380009827842B8C938981282F30E0C901880FFE
:10139000991F880F991F820F931FFC01E259FE4F7E
:1013A00080818E3181F08981282F30E0C901880F3A
:1013B000991F880F991F820F931FFC01E259FE4F5E
:1013C0008081803211F5A3E5B0E0E3E5F0E08081B3
:1013D000482F8981282F30E0C901880F991F880F75
:1013E000991F820F931FFC01E259FE4F8081882FC5
:1013F00090E04E9795958795880F991F880F991FB4
:10140000880F991F842B8C9302C082E08A83898184
:10141000282F30E0C901880F991F880F991F820F6C
:10142000931FFC01E159FE4F8081282F30E038875F
:101430002F838F8198858932910531F02F813885EE
:101440002A32310549F010C0A9E5B0E0E9E5F0E045
:10145000808181608C93E7C0A9E5B0E0E9E5F0E028
:10146000808182608C93DFC082E08A83DCC08981C6
:10147000282F30E0C901880F991F880F991F820F0C
:10148000931FFC01E559FE4F80818B3C09F0C8C0D9
:10149000A9E5B0E0E9E5F0E080818F738C93E5E4A5
:1014A000F0E01082E3E4F0E010828981282F30E040
:1014B000C901880F991F880F991F820F931FFC0184
:1014C000E459FE4F90819E012D5F3F4F8BEC692FB9
:1014D000A9010E942D0BDC01CB0180932502909382
:1014E0002602A0932702B0932802A5E4B0E0E5E429
:1014F000F0E090818B81892B8C93A5E4B0E0E5E44A
:10150000F0E08081482F8981282F30E0C901880FC1
:10151000991F880F991F820F931FFC01E359FE4FFB
:101520008081882F90E0449782959295907F9827AC
:10153000807F9827842B8C938981282F30E0C901E4
:10154000880F991F880F991F820F931FFC01E25982
:10155000FE4F80818E3181F08981282F30E0C901D2
:10156000880F991F880F991F820F931FFC01E25962
:10157000FE4F8081803211F5A5E4B0E0E5E4F0E0B3
:101580008081482F8981282F30E0C901880F991F59
:10159000880F991F820F931FFC01E259FE4F808133
:1015A000882F90E04E9795958795880F991F880F03
:1015B000991F880F991F842B8C9302C082E08A8325
:1015C0008981282F30E0C901880F991F880F991F42
:1015D000820F931FFC01E159FE4F8081282F30E0DC
:1015E0003E832D838D819E818932910531F02D813D
:1015F0003E812A32310549F010C0A9E5B0E0E9E5A5
:10160000F0E0808180648C930EC0A9E5B0E0E9E54C
:10161000F0E0808180688C9306C082E08A8303C0FA
:1016200082E08A8309C089818F5F898390916801F4
:101630008981891708F442CE8A81813019F03A8174
:101640003C8301C01C828C8128960FB6F894DEBFC3
:101650000FBECDBFCF91DF910895DF93CF93CDB76C
:10166000DEB72A970FB6F894DEBF0FBECDBF8D83CD
:101670006E8358874F8380E094E2A4EFB0E08983C3
:101680009A83AB83BC838E81282F30E03A872987E9
:1016900089859A858E30910509F481C029853A851E
:1016A0002F303105ECF489859A858B30910509F44A
:1016B00044C029853A852C30310534F489859A85D2
:1016C0008A30910591F1F7C029853A852C30310592
:1016D000C9F189859A858D30910509F448C0EBC020
:1016E00029853A852131310509F4A7C089859A8574
:1016F000823191056CF429853A852F30310509F442
:101700006BC089859A858031910509F47DC0D3C06D
:1017100029853A852231310509F4ADC089859A853C
:101720008331910509F4B7C0C6C0EF81F8851082F6
:1017300019821A821B821C82C2C0EF81F88581E067
:101740008083BDC0EF81F88582E0808389819A81A2
:10175000AB81BC81689412F8B695A795979587954B
:101760001694D1F789839A83AB83BC83A8C08D81FB
:101770008B3CA9F4EF81F88583E0808389819A818D
:10178000AB81BC81689414F8B695A7959795879519
:101790001694D1F789839A83AB83BC8390C08981E7
:1017A0009A81AB81BC81689415F8B695A7959795F9
:1017B00087951694D1F789839A83AB83BC838D81F7
:1017C0008B3C29F4EF81F88584E0808378C0EF8139
:1017D000F88583E0808373C08D818B3CA9F4EF8111
:1017E000F88585E0808389819A81AB81BC8168948A
:1017F00016F8B695A795979587951694D1F789838E
:101800009A83AB83BC835BC089819A81AB81BC81A5
:10181000892F9A2FAB2FBB2789839A83AB83BC83F5
:101820008D818B3C29F4EF81F88586E0808347C069
:10183000EF81F88584E0808342C089819A81AB8101
:10184000BC81072E7AE0B695A795979587957A95EE
:10185000D1F7702D89839A83AB83BC838D818B3CB8
:1018600029F4EF81F88587E0808329C0EF81F8852E
:1018700085E0808324C08FEF9FEFAFEFBFEF8983B8
:101880009A83AB83BC838D81883CC9F4EF81F88552
:1018900086E0808314C08FEF9FEFAFEFBFEF8983A7
:1018A0009A83AB83BC838D81883C49F4EF81F885B2
:1018B00087E0808304C019821A821B821C8289817E
:1018C0009A81AB81BC81BC01CD012A960FB6F894F8
:1018D000DEBF0FBECDBFCF91DF910895DF93CF93D1
:1018E000CDB7DEB72A970FB6F894DEBF0FBECDBFD7
:1018F0008887698781E08E838AE08F83E9E5F0E05D
:1019000080818D839E01295F3F4F88856985A9016C
:101910000E942D0BDC01CB0189839A83AB83BC83AE
:101920008885883C19F5A9E5B0E0E9E5F0E080811B
:101930008C7F8C93A3E5B0E0E3E5F0E08081887FC5
:101940008C93A3E5B0E0E3E5F0E090818F81892BF3
:101950008C9389819A81AB81BC8180932102909381
:101960002202A0932302B093240228C088858B3CD6
:1019700019F5A9E5B0E0E9E5F0E080818F738C937B
:10198000A5E4B0E0E5E4F0E08081887F8C93A5E4F5
:10199000B0E0E5E4F0E090818F81892B8C93898120
:1019A0009A81AB81BC818093250290932602A093FB
:1019B0002702B093280202C082E08E83E9E5F0E0BE
:1019C0008D8180838E81813019F08E818A8701C05C
:1019D0001A868A852A960FB6F894DEBF0FBECDBF51
:1019E000CF91DF910895DF93CF9300D000D00F9275
:1019F000CDB7DEB78B836C8381E08A83E9E5F0E0C5
:101A0000808189838B81883C09F5A9E5B0E0E9E50F
:101A1000F0E080818C7F8C93A3E5B0E0E3E5F0E01B
:101A200080818F7C8C93A3E5B0E0E3E5F0E08081DA
:101A3000282F8C81882F90E0449782959295907FF3
:101A40009827807F9827822B8C9326C08B818B3C94
:101A500009F5A9E5B0E0E9E5F0E080818F738C93AA
:101A6000A5E4B0E0E5E4F0E080818F7C8C93A5E410
:101A7000B0E0E5E4F0E08081282F8C81882F90E0B1
:101A8000449782959295907F9827807F9827822B04
:101A90008C9302C082E08A83E9E5F0E0898180834B
:101AA0008A81813019F08A818D8301C01D828D81E8
:101AB0000F900F900F900F900F90CF91DF9108959E
:101AC000DF93CF9300D000D00F92CDB7DEB78B83DA
:101AD0006C8381E08A838C818E3121F08C8180320D
:101AE00009F057C0E9E5F0E0808189838B81883C6B
:101AF00019F5A9E5B0E0E9E5F0E080818C7F8C93F1
:101B0000A3E5B0E0E3E5F0E08081877F8C93A3E577
:101B1000B0E0E3E5F0E08081282F8C81882F90E011
:101B20004E9795958795880F991F880F991F880F55
:101B3000991F822B8C9328C08B818B3C19F5A9E5CA
:101B4000B0E0E9E5F0E080818F738C93A5E4B0E02C
:101B5000E5E4F0E08081877F8C93A5E4B0E0E5E4E4
:101B6000F0E08081282F8C81882F90E04E9795950A
:101B70008795880F991F880F991F880F991F822BAF
:101B80008C9302C082E08A83E9E5F0E0898180835A
:101B900002C082E08A838A81813019F08A818D8334
:101BA00001C01D828D810F900F900F900F900F90AC
:101BB000CF91DF910895DF93CF9300D000D0CDB7C0
:101BC000DEB78B8381E08A83EFE5F0E08081898353
:101BD000F8948B81883C21F4E2E5F0E0108209C0A2
:101BE0008B818B3C21F4E4E4F0E0108202C082E0BF
:101BF0008A83EFE5F0E0898180838A81813019F062
:101C00008A818C8301C01C828C810F900F900F9071
:101C10000F90CF91DF910895DF93CF9300D000D044
:101C20000F92CDB7DEB78B836C8381E08A83EFE5BB
:101C3000F0E080818983F8948B81883C29F4E2E587
:101C4000F0E08C8180830AC08B818B3C29F4E4E432
:101C5000F0E08C81808302C082E08A83EFE5F0E0CF
:101C6000898180838A81813019F08A818D8301C0C6
:101C70001D828D810F900F900F900F900F90CF913C
:101C8000DF910895DF93CF9300D000D00F92CDB7AE
:101C9000DEB78A837C836B8381E089838B819C811F
:101CA0000097B9F08A81883C39F4EB81FC81A2E588
:101CB000B0E08C9180830FC08A818B3C39F4EB813A
:101CC000FC81A4E4B0E08C91808305C082E089832C
:101CD00002C083E089838981813019F089818D83F5
:101CE00001C01D828D810F900F900F900F900F906B
:101CF000CF91DF910895DF93CF9300D000D0CDB77F
:101D0000DEB78A836B8381E089838A81883C79F49A
:101D1000909169018B81981750F0ECE5F0E08B8190
:101D20008083ECE5F0E0808180931F0214C08A81FB
:101D30008B3C79F490916A018B81981750F0E3E421
:101D4000F0E08B818083E3E4F0E0808180932002E7
:101D500002C082E089838981813019F089818C8376
:101D600001C01C828C810F900F900F900F90CF912B
:101D7000DF910895DF93CF9300D000D00F92CDB7BD
:101D8000DEB78A837C836B8381E089838A81883C88
:101D900031F4EB81FC8180911F0280830BC08A812A
:101DA0008B3C31F4EB81FC8180912002808302C066
:101DB00082E089838981813019F089818D8301C016
:101DC0001D828D810F900F900F900F900F90CF91EB
:101DD000DF910895DF93CF9300D000D00F92CDB75D
:101DE000DEB78A8381E08983F8948A81282F30E0E6
:101DF0003D832C838C819D818234910531F12C812E
:101E00003D81233431055CF48C819D818C339105B7
:101E100061F02C813D812D33310579F026C08C8114
:101E20009D8183349105C9F020C0A9E5B0E0E9E5C2
:101E3000F0E0808181608C931AC0A9E5B0E0E9E50B
:101E4000F0E0808182608C9312C0A9E5B0E0E9E502
:101E5000F0E0808180648C930AC0A9E5B0E0E9E5F8
:101E6000F0E0808180688C9302C082E0898378945E
:101E70008981813019F099819B8301C01B828B81FC
:101E80000F900F900F900F900F90CF91DF910895CA
:101E9000DF93CF9300D000D00F92CDB7DEB78A8307
:101EA00081E08983F8948A81282F30E03D832C8358
:101EB0008C819D818234910531F12C813D812334C7
:101EC00031055CF48C819D818C33910561F02C810E
:101ED0003D812D33310579F026C08C819D8183347D
:101EE0009105C9F020C0A9E5B0E0E9E5F0E0808106
:101EF0008E7F8C931AC0A9E5B0E0E9E5F0E080811F
:101F00008D7F8C9312C0A9E5B0E0E9E5F0E0808117
:101F10008F7B8C930AC0A9E5B0E0E9E5F0E0808111
:101F20008F778C9302C082E0898378948981813095
:101F300019F099819B8301C01B828B810F900F90B8
:101F40000F900F900F90CF91DF910895DF93CF9373
:101F500000D000D000D0CDB7DEB78C837E836D83F8
:101F600081E08B831A828D819E81009779F125C053
:101F70008981282F30E0C901880F991F820F931F94
:101F8000FC01EB58FE4F90818C81981799F4898160
:101F9000282F30E0C901880F991F820F931FFC0181
:101FA000EA58FE4F8D819E81918380831B8281E060
:101FB0008A8306C089818F5F898389818430C0F2DA
:101FC0008A81882329F482E08B8302C083E08B839B
:101FD0008B8126960FB6F894DEBF0FBECDBFCF9192
:101FE000DF9108951F920F920FB60F9211242F9335
:101FF0003F934F935F936F937F938F939F93AF9391
:10200000BF93EF93FF93DF93CF93CDB7DEB780916C
:102010007F0190918001009729F0E0917F01F0917C
:1020200080010995CF91DF91FF91EF91BF91AF9121
:102030009F918F917F916F915F914F913F912F91E0
:102040000F900FBE0F901F9018951F920F920FB612
:102050000F9211242F933F934F935F936F937F932E
:102060008F939F93AF93BF93EF93FF93DF93CF93A0
:10207000CDB7DEB780917C0190917D01009729F06A
:10208000E0917C01F0917D010995CF91DF91FF9165
:10209000EF91BF91AF919F918F917F916F915F91E0
:1020A0004F913F912F910F900FBE0F901F90189559
:1020B0001F920F920FB60F9211242F933F934F93BD
:1020C0005F936F937F938F939F93AF93BF93EF93A0
:1020D000FF93DF93CF93CDB7DEB7809179019091D5
:1020E0007A01009729F0E0917901F0917A01099540
:1020F000CF91DF91FF91EF91BF91AF919F918F9120
:102100007F916F915F914F913F912F910F900FBEF3
:102110000F901F9018951F920F920FB60F921124D7
:102120002F933F934F935F936F937F938F939F93DF
:10213000AF93BF93EF93FF93DF93CF93CDB7DEB70A
:102140008091760190917701009729F0E0917601D6
:10215000F09177010995CF91DF91FF91EF91BF91B8
:10216000AF919F918F917F916F915F914F913F912F
:102170002F910F900FBE0F901F901895DF93CF9364
:10218000CDB7DEB729970FB6F894DEBF0FBECDBF2F
:1021900081E08D831C821B82BBC18B81282F30E0A4
:1021A000C901880F991F880F991F820F931FFC0187
:1021B000EC57FE4F8081893C89F08B81282F30E0DD
:1021C000C901880F991F880F991F820F931FFC0167
:1021D000EC57FE4F80818A3C09F097C18C8188239F
:1021E00009F0D2C081E08C83A9E5B0E0E9E5F0E038
:1021F0008081837C8C93EFE4F0E01082EEE4F0E0E9
:102200001082EFE5F0E080818A83F894EBE4F0E05F
:102210001082EAE4F0E01082E9E4F0E01082E8E401
:10222000F0E01082EFE5F0E08A8180838B81282F37
:1022300030E0C901880F991F880F991F820F931FE3
:10224000FC01EB57FE4F90819E012A5F3F4F89ECC6
:10225000692FA9010E949F12DC01CB0180932F02FC
:1022600090933002A0933102B0933202AEE4B0E01A
:10227000EEE4F0E090818E81892B8C938B81282F66
:1022800030E0C901880F991F880F991F820F931F93
:10229000FC01E957FE4F8081853608F473C08B81BD
:1022A000282F30E0C901880F991F880F991F820FCE
:1022B000931FFC01E957FE4F8081843708F062C00C
:1022C0008B81282F30E0C901880F991F880F991F33
:1022D000820F931FFC01E957FE4F8081883609F475
:1022E00051C08B81282F30E0C901880F991F880FBA
:1022F000991F820F931FFC01E957FE4F80818037A1
:1023000009F440C08B81282F30E0C901880F991F44
:10231000880F991F820F931FFC01E957FE4F8081A0
:10232000813781F18B81282F30E0C901880F991FF7
:10233000880F991F820F931FFC01E957FE4F808180
:1023400084568983AFE4B0E0EFE4F0E08081982F19
:1023500089818370892B8C93AEE4B0E0EEE4F0E0E9
:102360008081282F898186958695882F90E08370BB
:102370009070880F991F880F991F880F991F822BC3
:102380008C9302C082E08D838B81282F30E0C901BD
:10239000880F991F880F991F820F931FFC01EA571E
:1023A000FE4F8081863189F08B81282F30E0C90172
:1023B000880F991F880F991F820F931FFC01EA57FE
:1023C000FE4F8081873109F053C08B81282F30E088
:1023D000C901880F991F880F991F820F931FFC0155
:1023E000EC57FE4F8081893C19F5AFE4B0E0EFE493
:1023F000F0E08081482F8B81282F30E0C901880FC1
:10240000991F880F991F820F931FFC01EA57FE4FF7
:102410008081882F90E044970024969587950794B3
:10242000969587950794982F802D842B8C9322C0A6
:10243000AFE4B0E0EFE4F0E08081482F8B81282FFB
:1024400030E0C901880F991F880F991F820F931FD1
:10245000FC01EA57FE4F8081882F90E044978295D7
:102460009295907F9827807F9827842B8C9302C029
:1024700082E08D838B81282F30E0C901880F991F5E
:10248000880F991F820F931FFC01E857FE4F808130
:10249000282F30E0398728878885998583339105EF
:1024A00031F0288539852433310549F028C0A9E564
:1024B000B0E0E9E5F0E0808184608C9322C08B81FC
:1024C000282F30E0C901880F991F880F991F820FAC
:1024D000931FFC01EC57FE4F80818A3C41F4A9E533
:1024E000B0E0E9E5F0E0808188608C930AC0A9E55E
:1024F000B0E0E9E5F0E0808180618C9302C082E089
:102500008D838B818F5F8B8303C082E08D8306C0B8
:10251000909181018B81891708F43FCE8D818130A4
:1025200019F03D813F8301C01F828F8129960FB62C
:10253000F894DEBF0FBECDBFCF91DF910895DF933A
:10254000CF93CDB7DEB72A970FB6F894DEBF0FBE94
:10255000CDBF8D836E8358874F8380E094E2A4EFD4
:10256000B0E089839A83AB83BC838E81282F30E0CF
:102570003A87298789859A858E30910509F456C056
:1025800029853A852F30310584F489859A858B30E9
:10259000910591F129853A852C30310591F1898594
:1025A0009A858A30910501F197C029853A852131B4
:1025B000310509F461C089859A85823191053CF421
:1025C00029853A852031310509F445C085C08985C2
:1025D0009A858231910509F465C029853A852331B0
:1025E000310509F46CC078C0EF81F885108219823A
:1025F0001A821B821C8274C0EF81F88581E080837F
:102600006FC0EF81F88582E0808389819A81AB81F8
:10261000BC81689412F8B695A795979587951694FE
:10262000D1F789839A83AB83BC835AC089819A810D
:10263000AB81BC81689415F8B695A7959795879559
:102640001694D1F789839A83AB83BC83EF81F88595
:1026500083E0808345C089819A81AB81BC81892FC9
:102660009A2FAB2FBB2789839A83AB83BC83EF81DF
:10267000F88584E0808334C089819A81AB81BC81F4
:10268000072E7AE0B695A795979587957A95D1F715
:10269000702D89839A83AB83BC83EF81F88585E0B5
:1026A00080831EC08FEF9FEFAFEFBFEF89839A83C8
:1026B000AB83BC83EF81F88586E0808311C08FEF08
:1026C0009FEFAFEFBFEF89839A83AB83BC83EF812A
:1026D000F88587E0808304C019821A821B821C82DD
:1026E00089819A81AB81BC81BC01CD012A960FB64C
:1026F000F894DEBF0FBECDBFCF91DF910895DF9379
:10270000CF93CDB7DEB72A970FB6F894DEBF0FBED2
:10271000CDBF8887698781E08E838AE08F83E9E572
:10272000F0E080818D839E01295F3F4F8885698518
:10273000A9010E949F12DC01CB0189839A83AB839C
:10274000BC838885893C19F088858A3C19F5A9E500
:10275000B0E0E9E5F0E08081837C8C93AEE4B0E00A
:10276000EEE4F0E08081887F8C93AEE4B0E0EEE4AC
:10277000F0E090818F81892B8C9389819A81AB8144
:10278000BC8180932F0290933002A0933102B093CA
:10279000320202C082E08E83E9E5F0E08D81808321
:1027A0008E81813019F08E818A8701C01A868A85D0
:1027B0002A960FB6F894DEBF0FBECDBFCF91DF9142
:1027C0000895DF93CF9300D000D00F92CDB7DEB73E
:1027D0008B836C8381E08A83E9E5F0E080818983E3
:1027E0008C81863121F08C81873109F052C08B8138
:1027F000893C21F08B818A3C09F044C0A9E5B0E016
:10280000E9E5F0E08081837C8C938B81893CE9F45D
:10281000AFE4B0E0EFE4F0E080818F738C93AFE43D
:10282000B0E0EFE4F0E08081282F8C81882F90E0E9
:1028300044970024969587950794969587950794D5
:10284000982F802D822B8C931FC08B818A3CE1F4C2
:10285000AEE4B0E0EEE4F0E080818F7C8C93AEE4F7
:10286000B0E0EEE4F0E08081282F8C81882F90E0AA
:10287000449782959295907F9827807F9827822B06
:102880008C9302C082E08A83E9E5F0E0898180834D
:1028900002C082E08A838A81813019F08A818D8327
:1028A00001C01D828D810F900F900F900F900F909F
:1028B000CF91DF910895DF93CF9300D000D000D067
:1028C000CDB7DEB78C836D8381E08B838D818536B8
:1028D00008F46AC08D81843708F066C08D8188361F
:1028E00009F462C08D81803709F45EC08D81813723
:1028F00009F45AC0E9E5F0E080818A838C81893C43
:1029000021F08C818A3C09F048C08D81853608F41D
:1029100044C08D81843708F040C08D818836E9F14C
:102920008D818037D1F18D818137B9F18D818456C8
:102930008983A9E5B0E0E9E5F0E08081837C8C93B0
:10294000AEE4B0E0EEE4F0E08081877E8C93AFE40B
:10295000B0E0EFE4F0E08081982F89818370892BCB
:102960008C93AEE4B0E0EEE4F0E08081282F898122
:1029700086958695882F90E083709070880F991FB8
:10298000880F991F880F991F822B8C938D818093BC
:1029900087018D8180938C0102C082E08B83E9E501
:1029A000F0E08A81808302C082E08B838B8181305A
:1029B00019F08B818E8301C01E828E8126960FB600
:1029C000F894DEBF0FBECDBFCF91DF910895DF93A6
:1029D000CF93CDB7DEB727970FB6F894DEBF0FBE03
:1029E000CDBF8C837E836D8381E08B838C81893C1A
:1029F00021F520918201309183018D819E812817DC
:102A00003907D8F0EFE5F0E080818A83F894EBE4B1
:102A1000F0E08D819E81892F99278083EAE4F0E0A0
:102A20008D818083EFE5F0E08A8180838D819E81B6
:102A300090932A028093290229C08C818A3C21F537
:102A400020918201309183018D819E812817390761
:102A5000D8F0EFE5F0E080818983F894E9E4F0E0D4
:102A60008D819E81892F99278083E8E4F0E08D8114
:102A70008083EFE5F0E0898180838D819E81909352
:102A80002C0280932B0202C082E08B838B818130E9
:102A900019F08B818F8301C01F828F8127960FB61B
:102AA000F894DEBF0FBECDBFCF91DF910895DF93C5
:102AB000CF9300D00F92CDB7DEB79B838A83EFE52B
:102AC000F0E080818983F894E7E4F0E08A819B81DB
:102AD000892F99278083E6E4F0E08A818083EFE5FF
:102AE000F0E0898180838A819B8190932E0280937C
:102AF0002D0280E00F900F900F90CF91DF910895FD
:102B0000DF93CF93CDB7DEB727970FB6F894DEBF2C
:102B10000FBECDBF8C836D8381E08B838C81893C1C
:102B200021F08C818A3C09F07CC08D81833321F0B7
:102B30008D81843309F075C01A8219828D81282F06
:102B400030E03F832E838E819F818333910531F066
:102B50002E813F812433310521F135C0A9E5B0E054
:102B6000E9E5F0E0808184608C931A8212C08A814A
:102B7000282F30E0C901880F991F880F991F820FF5
:102B8000931FFC01E857FE4F8D8180838A818F5F00
:102B90008A83909181018A81891748F381E0898332
:102BA00012C08C818A3C41F4A9E5B0E0E9E5F0E08F
:102BB000808188608C9307C0A9E5B0E0E9E5F0E08A
:102BC000808180618C938981882369F51A8223C072
:102BD0008A81282F30E0C901880F991F880F991F1B
:102BE000820F931FFC01EC57FE4F90818C81981748
:102BF00079F48A81282F30E0C901880F991F880F46
:102C0000991F820F931FFC01E857FE4F8D8180832F
:102C10008A818F5F8A83909181018A818917C0F2AE
:102C200002C082E08B838B8127960FB6F894DEBFBB
:102C30000FBECDBFCF91DF910895DF93CF9300D02A
:102C400000D00F92CDB7DEB78B837D836C8381E09C
:102C50008A838C819D810097B1F18B81893C19F029
:102C60008B81893C69F5198225C08981282F30E044
:102C7000C901880F991F880F991F820F931FFC01AC
:102C8000EC57FE4F90818B81981789F48981282F0A
:102C900030E0C901880F991F880F991F820F931F79
:102CA000FC01E857FE4F8081EC81FD8180838981A2
:102CB0008F5F89839091810189818917B0F205C066
:102CC00082E08A8302C083E08A838A810F900F901A
:102CD0000F900F900F90CF91DF910895EF92FF9298
:102CE0000F931F93DF93CF93CDB7DEB76D970FB6DA
:102CF000F894DEBF0FBECDBF8C874D875E876F8790
:102D0000788B81E08B8718868C85893C21F08C85B7
:102D10008A3C09F062C71B8232C08B81282F30E0C9
:102D2000C901880F991F880F991F820F931FFC01FB
:102D3000EC57FE4F90818C859817F1F48B81282FEA
:102D400030E0C901880F991F880F991F820F931FC8
:102D5000FC01E957FE4F80818A878B81282F30E064
:102D6000C901880F991F880F991F820F931FFC01BB
:102D7000EA57FE4F808189878B818F5F8B8390918B
:102D800081018B81891748F28A85282F30E03D8F99
:102D90002C8F8C8D9D8D8B36910509F403C32C8D62
:102DA0003D8D2C3631052CF58C8D9D8D873691050A
:102DB00009F48AC22C8D3D8D283631056CF48C8D3A
:102DC0009D8D8536910509F43FC02C8D3D8D2636AD
:102DD000310509F459C1BEC68C8D9D8D893691058A
:102DE00009F4A0C02C8D3D8D2A36310509F4BAC1F5
:102DF000B1C68C8D9D8D8E36910509F4F5C32C8D51
:102E00003D8D2F3631056CF48C8D9D8D8C36910562
:102E100009F47AC32C8D3D8D2D36310509F408C592
:102E200099C68C8D9D8D8237910509F44DC42C8DEA
:102E30003D8D2337310509F4DBC58C8D9D8D8F3693
:102E4000910509F465C586C68FEF90E09F838E8358
:102E50008985863141F58E819F81CC01A0E0B0E06B
:102E6000BC01CD010E94D704DC01CB01BC01CD0126
:102E70002D853E854F8558890E941F02DC01CB01BC
:102E8000BC01CD0120E030E048EC52E40E9419037F
:102E9000DC01CB01BC01CD010E944900DC01CB016A
:102EA0009D838C8357C68985873109F053C68E81EF
:102EB0009F81CC01A0E0B0E0BC01CD010E94D7040D
:102EC0007B018C018E819F81CC01A0E0B0E0BC0130
:102ED000CD010E94D704DC01CB01BC01CD012D85C1
:102EE0003E854F8558890E941F02DC01CB01BC0141
:102EF000CD0120E030E048EC52EC0E941903DC01E7
:102F0000CB019C01AD01C801B7010E94F201DC01B7
:102F1000CB01BC01CD010E944900DC01CB019D83A6
:102F20008C8318C68FEF90E09F838E8389858631CE
:102F3000B9F41B8E6D857E858F85988920E030E001
:102F400040E050E00E94C503882311F491E09B8F7C
:102F500081E02B8D8227882319F481E08887FAC5C8
:102F600089858731B9F41A8E6D857E858F8598891C
:102F700020E030E048EC52E40E94C503882311F4BD
:102F800031E03A8F81E09A8D8927882319F481E016
:102F90008887E0C589858631A9F58E819F81CC011E
:102FA000A0E0B0E00196A11DB11DBC01CD010E94C1
:102FB000D704DC01CB01BC01CD012D853E854F85B9
:102FC00058890E941F02DC01CB01BC01CD0120E029
:102FD00030E048EC52E40E941903DC01CB01BC0153
:102FE000CD0120E030E040E85FE30E94C101DC0158
:102FF000CB01BC01CD010E944900DC01CB019D83C6
:103000008C83A8C58985873109F0A4C58E819F81ED
:10301000CC01A0E0B0E0BC01CD010E94D7047B014F
:103020008C018E819F81CC01A0E0B0E00196A11DB2
:10303000B11DBC01CD010E94D704DC01CB01BC0154
:10304000CD012D853E854F8558890E941F02DC01E8
:10305000CB01BC01CD0120E030E048EC52EC0E94F5
:103060001903DC01CB019C01AD01C801B7010E942D
:10307000F201DC01CB01BC01CD010E944900DC0161
:10308000CB019D838C8366C58FEF91E09F838E83F8
:103090008985863141F58E819F81CC01A0E0B0E029
:1030A000BC01CD010E94D704DC01CB01BC01CD01E4
:1030B0002D853E854F8558890E941F02DC01CB017A
:1030C000BC01CD0120E030E048EC52E40E9419033D
:1030D000DC01CB01BC01CD010E944900DC01CB0128
:1030E0009D838C8337C58985873109F033C58E81EF
:1030F0009F81CC01A0E0B0E0BC01CD010E94D704CB
:103100007B018C018E819F81CC01A0E0B0E0BC01ED
:10311000CD010E94D704DC01CB01BC01CD012D857E
:103120003E854F8558890E941F02DC01CB01BC01FE
:10313000CD0120E030E048EC52EC0E941903DC01A4
:10314000CB019C01AD01C801B7010E94F201DC0175
:10315000CB01BC01CD010E944900DC01CB019D8364
:103160008C83F8C48FEF91E09F838E8389858631AD
:10317000B9F4198E6D857E858F85988920E030E0C1
:1031800040E050E00E94C503882311F421E0298F1C
:1031900081E0398D8327882319F481E08887DAC498
:1031A00089858731B9F4188E6D857E858F859889DC
:1031B00020E030E048EC52E40E94C503882311F47B
:1031C00081E0888F81E0988D8927882319F481E038
:1031D0008887C0C489858631A9F58E819F81CC01FD
:1031E000A0E0B0E00196A11DB11DBC01CD010E947F
:1031F000D704DC01CB01BC01CD012D853E854F8577
:1032000058890E941F02DC01CB01BC01CD0120E0E6
:1032100030E048EC52E40E941903DC01CB01BC0110
:10322000CD0120E030E040E85FE30E94C101DC0115
:10323000CB01BC01CD010E944900DC01CB019D8383
:103240008C8388C48985873109F084C48E819F81ED
:10325000CC01A0E0B0E0BC01CD010E94D7047B010D
:103260008C018E819F81CC01A0E0B0E00196A11D70
:10327000B11DBC01CD010E94D704DC01CB01BC0112
:10328000CD012D853E854F8558890E941F02DC01A6
:10329000CB01BC01CD0120E030E048EC52EC0E94B3
:1032A0001903DC01CB019C01AD01C801B7010E94EB
:1032B000F201DC01CB01BC01CD010E944900DC011F
:1032C000CB019D838C8346C48FEF93E09F838E83D5
:1032D0008985863141F58E819F81CC01A0E0B0E0E7
:1032E000BC01CD010E94D704DC01CB01BC01CD01A2
:1032F0002D853E854F8558890E941F02DC01CB0138
:10330000BC01CD0120E030E048EC52E40E941903FA
:10331000DC01CB01BC01CD010E944900DC01CB01E5
:103320009D838C8317C48985873109F013C48E81EE
:103330009F81CC01A0E0B0E0BC01CD010E94D70488
:103340007B018C018E819F81CC01A0E0B0E0BC01AB
:10335000CD010E94D704DC01CB01BC01CD012D853C
:103360003E854F8558890E941F02DC01CB01BC01BC
:10337000CD0120E030E048EC52EC0E941903DC0162
:10338000CB019C01AD01C801B7010E94F201DC0133
:10339000CB01BC01CD010E944900DC01CB019D8322
:1033A0008C83D8C38FEF93E09F838E83898586318A
:1033B000B9F41F8A6D857E858F85988920E030E07D
:1033C00040E050E00E94C503882311F421E02F8BD8
:1033D00081E03F898327882319F481E08887BAC375
:1033E00089858731B9F41E8A6D857E858F85988998
:1033F00020E030E048EC52E40E94C503882311F439
:1034000081E08E8B81E09E898927882319F481E0F1
:103410008887A0C389858631A9F58E819F81CC01DB
:10342000A0E0B0E00196A11DB11DBC01CD010E943C
:10343000D704DC01CB01BC01CD012D853E854F8534
:1034400058890E941F02DC01CB01BC01CD0120E0A4
:1034500030E048EC52E40E941903DC01CB01BC01CE
:10346000CD0120E030E040E85FE30E94C101DC01D3
:10347000CB01BC01CD010E944900DC01CB019D8341
:103480008C8368C38985873109F064C38E819F81ED
:10349000CC01A0E0B0E0BC01CD010E94D7047B01CB
:1034A0008C018E819F81CC01A0E0B0E00196A11D2E
:1034B000B11DBC01CD010E94D704DC01CB01BC01D0
:1034C000CD012D853E854F8558890E941F02DC0164
:1034D000CB01BC01CD0120E030E048EC52EC0E9471
:1034E0001903DC01CB019C01AD01C801B7010E94A9
:1034F000F201DC01CB01BC01CD010E944900DC01DD
:10350000CB019D838C8326C380912D0290912E0246
:103510009F838E838985863141F58E819F81CC0181
:10352000A0E0B0E0BC01CD010E94D704DC01CB01DA
:10353000BC01CD012D853E854F8558890E941F0213
:10354000DC01CB01BC01CD0120E030E048EC52E4CD
:103550000E941903DC01CB01BC01CD010E9449008E
:10356000DC01CB019D838C83F5C28985873109F00D
:10357000F1C28E819F81CC01A0E0B0E0BC01CD0101
:103580000E94D7047B018C018E819F81CC01A0E039
:10359000B0E0BC01CD010E94D704DC01CB01BC012D
:1035A000CD012D853E854F8558890E941F02DC0183
:1035B000CB01BC01CD0120E030E048EC52EC0E9490
:1035C0001903DC01CB019C01AD01C801B7010E94C8
:1035D000F201DC01CB01BC01CD010E944900DC01FC
:1035E000CB019D838C83B6C280912D0290912E02D7
:1035F0009F838E838985863141F58E819F81CC01A1
:10360000A0E0B0E0BC01CD010E94D704DC01CB01F9
:10361000BC01CD012D853E854F8558890E941F0232
:10362000DC01CB01BC01CD0120E030E048EC52E4EC
:103630000E941903DC01CB01BC01CD010E944900AD
:10364000DC01CB019D838C8385C28985873109F09C
:1036500081C28E819F81CC01A0E0B0E0BC01CD0190
:103660000E94D7047B018C018E819F81CC01A0E058
:10367000B0E0BC01CD010E94D704DC01CB01BC014C
:10368000CD012D853E854F8558890E941F02DC01A2
:10369000CB01BC01CD0120E030E048EC52EC0E94AF
:1036A0001903DC01CB019C01AD01C801B7010E94E7
:1036B000F201DC01CB01BC01CD010E944900DC011B
:1036C000CB019D838C8346C280912D0290912E0266
:1036D0009F838E8389858631B9F41D8A6D857E85A9
:1036E0008F85988920E030E040E050E00E94C503DB
:1036F000882311F421E02D8B81E03D8983278823E5
:1037000019F481E0888726C289858731B9F41C8A3B
:103710006D857E858F85988920E030E048EC52E405
:103720000E94C503882311F481E08C8B81E09C8981
:103730008927882319F481E088870CC2898586311E
:10374000A9F58E819F81CC01A0E0B0E00196A11D7A
:10375000B11DBC01CD010E94D704DC01CB01BC012D
:10376000CD012D853E854F8558890E941F02DC01C1
:10377000CB01BC01CD0120E030E048EC52E40E94D6
:103780001903DC01CB01BC01CD0120E030E040E8B1
:103790005FE30E94C101DC01CB01BC01CD010E94AD
:1037A0004900DC01CB019D838C83D4C1898587319D
:1037B00009F0D0C18E819F81CC01A0E0B0E0BC01B6
:1037C000CD010E94D7047B018C018E819F81CC01A9
:1037D000A0E0B0E00196A11DB11DBC01CD010E9489
:1037E000D704DC01CB01BC01CD012D853E854F8581
:1037F00058890E941F02DC01CB01BC01CD0120E0F1
:1038000030E048EC52EC0E941903DC01CB019C0132
:10381000AD01C801B7010E94F201DC01CB01BC017E
:10382000CD010E944900DC01CB019D838C8392C1B4
:103830008091290290912A029F838E838985863107
:1038400041F58E819F81CC01A0E0B0E0BC01CD01AB
:103850000E94D704DC01CB01BC01CD012D853E8542
:103860004F8558890E941F02DC01CB01BC01CD01AC
:1038700020E030E048EC52E40E941903DC01CB0167
:10388000BC01CD010E944900DC01CB019D838C83EA
:1038900061C18985873109F05DC18E819F81CC012D
:1038A000A0E0B0E0BC01CD010E94D7047B018C01F7
:1038B0008E819F81CC01A0E0B0E0BC01CD010E94CF
:1038C000D704DC01CB01BC01CD012D853E854F85A0
:1038D00058890E941F02DC01CB01BC01CD0120E010
:1038E00030E048EC52EC0E941903DC01CB019C0152
:1038F000AD01C801B7010E94F201DC01CB01BC019E
:10390000CD010E944900DC01CB019D838C8322C143
:103910008091290290912A029F838E838985863126
:1039200041F58E819F81CC01A0E0B0E0BC01CD01CA
:103930000E94D704DC01CB01BC01CD012D853E8561
:103940004F8558890E941F02DC01CB01BC01CD01CB
:1039500020E030E048EC52E40E941903DC01CB0186
:10396000BC01CD010E944900DC01CB019D838C8309
:10397000F1C08985873109F0EDC08E819F81CC012E
:10398000A0E0B0E0BC01CD010E94D7047B018C0116
:103990008E819F81CC01A0E0B0E0BC01CD010E94EE
:1039A000D704DC01CB01BC01CD012D853E854F85BF
:1039B00058890E941F02DC01CB01BC01CD0120E02F
:1039C00030E048EC52EC0E941903DC01CB019C0171
:1039D000AD01C801B7010E94F201DC01CB01BC01BD
:1039E000CD010E944900DC01CB019D838C83B2C0D4
:1039F0008091290290912A029F838E838985863146
:103A0000B9F41B8A6D857E858F85988920E030E02A
:103A100040E050E00E94C503882311F421E02B8B85
:103A200081E03B898327882319F481E0888792C04D
:103A300089858731B9F41A8A6D857E858F85988945
:103A400020E030E048EC52E40E94C503882311F4E2
:103A500081E08A8B81E09A898927882319F481E0A3
:103A6000888778C089858631A9F58E819F81CC01B0
:103A7000A0E0B0E00196A11DB11DBC01CD010E94E6
:103A8000D704DC01CB01BC01CD012D853E854F85DE
:103A900058890E941F02DC01CB01BC01CD0120E04E
:103AA00030E048EC52E40E941903DC01CB01BC0178
:103AB000CD0120E030E040E85FE30E94C101DC017D
:103AC000CB01BC01CD010E944900DC01CB019D83EB
:103AD0008C8340C089858731E9F58E819F81CC0137
:103AE000A0E0B0E0BC01CD010E94D7047B018C01B5
:103AF0008E819F81CC01A0E0B0E00196A11DB11D97
:103B0000BC01CD010E94D704DC01CB01BC01CD0179
:103B10002D853E854F8558890E941F02DC01CB010F
:103B2000BC01CD0120E030E048EC52EC0E941903CA
:103B3000DC01CB019C01AD01C801B7010E94F2017B
:103B4000DC01CB01BC01CD010E944900DC01CB01AD
:103B50009D838C838885882309F03CC08C85893CB3
:103B6000D9F4EFE5F0E080818A83F894EBE4F0E0AB
:103B70008C819D81892F99278083EAE4F0E08C81F4
:103B80008083EFE5F0E08A8180838C819D81909332
:103B90002A028093290223C08C858A3C01F5EFE537
:103BA000F0E080818983F894E9E4F0E08C819D81E4
:103BB000892F99278083E8E4F0E08C818083EFE50A
:103BC000F0E0898180838C819D8190932C02809389
:103BD0002B0205C082E08B8702C082E08B878B8539
:103BE000813019F02B85298B01C0198A89896D963E
:103BF0000FB6F894DEBF0FBECDBFCF91DF911F91FE
:103C00000F91FF90EF900895DF93CF9300D000D0F5
:103C10000F92CDB7DEB78A8381E08983F8948A81D9
:103C2000282F30E03D832C838C819D818F3391053B
:103C300091F02C813D8120343105A9F08C819D814A
:103C40008E339105C1F4A9E5B0E0E9E5F0E08081AB
:103C500084608C9312C0A9E5B0E0E9E5F0E08081D2
:103C600088608C930AC0A9E5B0E0E9E5F0E08081C6
:103C700080618C9302C082E089837894898181304D
:103C800019F099819B8301C01B828B810F900F904B
:103C90000F900F900F90CF91DF910895DF93CF9306
:103CA00000D000D00F92CDB7DEB78A8381E0898340
:103CB000F8948A81282F30E03D832C838C819D816C
:103CC0008F33910591F02C813D8120343105A9F08D
:103CD0008C819D818E339105C1F4A9E5B0E0E9E5C1
:103CE000F0E080818B7F8C9312C0A9E5B0E0E9E51C
:103CF000F0E08081877F8C930AC0A9E5B0E0E9E518
:103D0000F0E080818F7E8C9302C082E0898378947A
:103D10008981813019F099819B8301C01B828B813D
:103D20000F900F900F900F900F90CF91DF9108950B
:103D3000DF93CF9300D000D000D0CDB7DEB78C8317
:103D40007E836D8381E08B831A828D819E810097B3
:103D500079F125C08981282F30E0C901880F991F8A
:103D6000820F931FFC01E257FE4F90818C819817C0
:103D700099F48981282F30E0C901880F991F820F9B
:103D8000931FFC01E157FE4F8D819E8191838083BB
:103D90001B8281E08A8306C089818F5F8983898144
:103DA0008330C0F28A81882329F482E08B8302C0A9
:103DB00083E08B838B8126960FB6F894DEBF0FBE0F
:103DC000CDBFCF91DF9108951F920F920FB60F9242
:103DD00011242F933F934F935F936F937F938F9310
:103DE0009F93AF93BF93EF93FF93DF93CF93CDB7A1
:103DF000DEB78091950190919601009729F0E091AE
:103E00009501F09196010995CF91DF91FF91EF9186
:103E1000BF91AF919F918F917F916F915F914F91E2
:103E20003F912F910F900FBE0F901F9018951F92EA
:103E30000F920FB60F9211242F933F934F935F93DE
:103E40006F937F938F939F93AF93BF93EF93FF9362
:103E5000DF93CF93CDB7DEB780919201909193011C
:103E6000009729F0E0919201F09193010995CF918B
:103E7000DF91FF91EF91BF91AF919F918F917F91D2
:103E80006F915F914F913F912F910F900FBE0F90C7
:103E90001F9018951F920F920FB60F9211242F9317
:103EA0003F934F935F936F937F938F939F93AF93C2
:103EB000BF93EF93FF93DF93CF93CDB7DEB780919E
:103EC0008F0190919001009729F0E0918F01F0917E
:103ED00090010995CF91DF91FF91EF91BF91AF9143
:103EE0009F918F917F916F915F914F913F912F9112
:103EF0000F900FBE0F901F901895DF93CF9300D0B7
:103F000000D0CDB7DEB79B838A836C83ECE3F0E00F
:103F100080818695882F90E0817090708823B1F71A
:103F2000E7E5F0E08081882F90E081709070882331
:103F3000B9F7EFE5F0E080818983F894EFE3F0E0F2
:103F40008A819B81892F99278083EEE3F0E08A8123
:103F50008083EDE3F0E08C818083E29AE19AEFE5E3
:103F6000F0E08981808380E00F900F900F900F9098
:103F7000CF91DF910895DF93CF9300D000D00F92BF
:103F8000CDB7DEB79B838A837D836C8381E0898391
:103F90008C819D810097F1F0ECE3F0E080818695C3
:103FA000882F90E0817090708823B1F7EFE3F0E004
:103FB0008A819B81892F99278083EEE3F0E08A81B3
:103FC0008083E09AEDE3F0E08081EC81FD818083E5
:103FD000198202C083E0898389810F900F900F902E
:103FE0000F900F90CF91DF910895DF93CF93CDB7CE
:103FF000DEB780E0CF91DF910895DF93CF9300D0BB
:1040000000D000D0CDB7DEB78A836B834C8381E0CC
:1040100089838A818C3008F4BAC08A81803108F0A3
:10402000B6C08B81883008F0B2C08C81882321F023
:104030008C81813009F0ABC08A81282F30E03E832B
:104040002D836D817E816D307105D1F18D819E81D1
:104050008E30910534F42D813E812C30310571F084
:1040600094C06D817E816E30710509F44BC08D81E5
:104070009E818F30910509F467C087C0AAE3B0E044
:10408000EAE3F0E08081482F8B81282F30E081E047
:1040900090E002C0880F991F2A95E2F78095482387
:1040A0008C81282F30E08B81882F90E0B90102C0ED
:1040B000660F771F8A95E2F7CB01842B8C9365C03E
:1040C000A7E3B0E0E7E3F0E08081482F8B81282F61
:1040D00030E081E090E002C0880F991F2A95E2F756
:1040E000809548238C81282F30E08B81882F90E0A9
:1040F000B90102C0660F771F8A95E2F7CB01842BC6
:104100008C9343C0A4E3B0E0E4E3F0E08081482F67
:104110008B81282F30E081E090E002C0880F991F4A
:104120002A95E2F7809548238C81282F30E08B81F7
:10413000882F90E0B90102C0660F771F8A95E2F7D9
:10414000CB01842B8C9321C0A1E3B0E0E1E3F0E04C
:104150008081482F8B81282F30E081E090E002C0E1
:10416000880F991F2A95E2F7809548238C81282F84
:1041700030E08B81882F90E0B90102C0660F771F75
:104180008A95E2F7CB01842B8C93198202C082E0DE
:104190008983898126960FB6F894DEBF0FBECDBF06
:1041A000CF91DF910895DF93CF9300D000D000D05E
:1041B000CDB7DEB78A836B834C8381E089838A81A4
:1041C0008C3008F4BAC08A81803108F0B6C08B8187
:1041D000883008F0B2C08C81813021F08C81813030
:1041E00009F0ABC08A81282F30E03E832D836D819A
:1041F0007E816D307105D1F18D819E818E3091056A
:1042000034F42D813E812C30310571F094C06D81E4
:104210007E816E30710509F44BC08D819E818F3097
:10422000910509F467C087C0ABE3B0E0EBE3F0E0D1
:104230008081482F8B81282F30E081E090E002C000
:10424000880F991F2A95E2F7809548238C81282FA3
:1042500030E08B81882F90E0B90102C0660F771F94
:104260008A95E2F7CB01842B8C9365C0A8E3B0E07C
:10427000E8E3F0E08081482F8B81282F30E081E057
:1042800090E002C0880F991F2A95E2F78095482395
:104290008C81282F30E08B81882F90E0B90102C0FB
:1042A000660F771F8A95E2F7CB01842B8C9343C06E
:1042B000A5E3B0E0E5E3F0E08081482F8B81282F73
:1042C00030E081E090E002C0880F991F2A95E2F764
:1042D000809548238C81282F30E08B81882F90E0B7
:1042E000B90102C0660F771F8A95E2F7CB01842BD4
:1042F0008C9321C0A2E3B0E0E2E3F0E08081482F9C
:104300008B81282F30E081E090E002C0880F991F58
:104310002A95E2F7809548238C81282F30E08B8105
:10432000882F90E0B90102C0660F771F8A95E2F7E7
:10433000CB01842B8C93198202C082E0898389810E
:1043400026960FB6F894DEBF0FBECDBFCF91DF919A
:104350000895DF93CF9300D000D00F92CDB7DEB792
:104360008A836B8381E089838A818C3008F479C0E9
:104370008A81803108F075C08B81883008F071C067
:104380008A81282F30E03D832C838C819D818D3064
:10439000910551F12C813D812E30310534F48C8111
:1043A0009D818C30910561F05AC02C813D812E3069
:1043B000310571F18C819D818F309105E9F14FC0FC
:1043C000ABE3B0E0EBE3F0E08081482F8B81282F56
:1043D00030E081E090E0022E02C0880F991F0A941D
:1043E000E2F784278C933BC0A8E3B0E0E8E3F0E079
:1043F0008081482F8B81282F30E081E090E0022ED1
:1044000002C0880F991F0A94E2F784278C9327C073
:10441000A5E3B0E0E5E3F0E08081482F8B81282F11
:1044200030E081E090E0022E02C0880F991F0A94CC
:10443000E2F784278C9313C0A2E3B0E0E2E3F0E05C
:104440008081482F8B81282F30E081E090E0022E80
:1044500002C0880F991F0A94E2F784278C9319826F
:1044600002C082E0898389810F900F900F900F9096
:104470000F90CF91DF910895DF93CF93CDB7DEB743
:1044800027970FB6F894DEBF0FBECDBF8A836B832C
:104490005D834C8381E089838C819D81009709F441
:1044A00081C08A818C3008F47AC08A81803108F01A
:1044B00076C08B81883008F072C08A81282F30E066
:1044C0003F832E834E815F814D30510559F18E819E
:1044D0009F818E30910534F42E813F812C3031053F
:1044E00069F05BC04E815F814E30510579F18E815C
:1044F0009F818F30910509F43DC04FC0E9E3F0E0A2
:104500008081282F30E08B81882F90E0A90102C0A4
:10451000559547958A95E2F7CA018170EC81FD8136
:1045200080833BC0E6E3F0E08081282F30E08B8180
:10453000882F90E0A90102C0559547958A95E2F72A
:10454000CA018170EC81FD81808327C0E3E3F0E044
:104550008081282F30E08B81882F90E0A90102C054
:10456000559547958A95E2F7CA018170EC81FD81E6
:10457000808313C0E0E3F0E08081282F30E08B815E
:10458000882F90E0A90102C0559547958A95E2F7DA
:10459000CA018170EC81FD818083198205C082E0AF
:1045A000898302C083E08983898127960FB6F894B6
:1045B000DEBF0FBECDBFCF91DF910895DF93CF93C4
:1045C0000F92CDB7DEB781E08983A6E2B0E0E6E2E4
:1045D000F0E08081887F8C93A6E2B0E0E6E2F0E034
:1045E000808186608C93A7E2B0E0E7E2F0E0808112
:1045F0008F738C93A7E2B0E0E7E2F0E080818068FF
:104600008C93A7E2B0E0E7E2F0E080818F7D8C93AD
:10461000A7E2B0E0E7E2F0E08081807E8C93A7E241
:10462000B0E0E7E2F0E080818C93A6E2B0E0E6E261
:10463000F0E0808188608C93A0E5B0E0E0E5F0E0F8
:104640008081887F8C93A0E5B0E0E0E5F0E0808198
:104650008E6D8C93A6E2B0E0E6E2F0E080818F7D83
:104660008C93A6E2B0E0E6E2F0E0808180688C9373
:104670008981823009F0198289810F90CF91DF9171
:104680000895DF93CF9300D0CDB7DEB78A8381E062
:104690008983A6E2B0E0E6E2F0E08081887F8C9337
:1046A0008A81893778F08A81882364F0A6E2B0E0B5
:1046B000E6E2F0E08081982F8A818857892B8C93DD
:1046C000198202C082E0898389810F900F90CF9177
:1046D000DF910895DF93CF9300D0CDB7DEB78A8303
:1046E00081E08983A7E2B0E0E7E2F0E080818F73A8
:1046F0008C938A818823DCF48A818338C0F4A7E212
:10470000B0E0E7E2F0E08081282F8A81882F90E0F6
:1047100080589040002496958795079496958795A4
:104720000794982F802D822B8C93198202C082E0EF
:10473000898389810F900F90CF91DF910895DF9346
:10474000CF9300D0CDB7DEB78A8381E089838A8199
:104750008538A0F08A81853A88F4A7E2B0E0E7E2E4
:10476000F0E08081807E8C93A7E2B0E0E7E2F0E0A9
:1047700090818A81892B8C93198202C082E089837F
:1047800089810F900F90CF91DF910895DF93CF93A0
:10479000CDB7DEB7A6E2B0E0E6E2F0E0808180646B
:1047A0008C9380E0CF91DF910895DF93CF9300D079
:1047B000CDB7DEB78A8381E089838A81873A08F1A1
:1047C0008A818F3AF0F4A6E2B0E0E6E2F0E0808180
:1047D0008F7D8C93A0E5B0E0E0E5F0E08081887FFC
:1047E0008C93A0E5B0E0E0E5F0E080818E6D8C93E5
:1047F000A6E2B0E0E6E2F0E0808180628C9319826C
:1048000002C082E0898389810F900F90CF91DF9160
:104810000895DF93CF93CDB7DEB7A6E2B0E0E6E22E
:10482000F0E080818F7D8C9380E0CF91DF910895BF
:10483000DF93CF9300D00F92CDB7DEB79B838A83EF
:1048400081E089838A819B810097E1F0E4E2F0E0D6
:104850008081882F90E0EA81FB8191838083EA81C7
:10486000FB8120813181E5E2F0E08081882F90E0BA
:10487000982F8827822B932BEA81FB819183808359
:10488000198202C083E0898389810F900F900F9075
:10489000CF91DF910895DF93CF9300D00F92CDB7E2
:1048A000DEB79B838A8381E089838A819B8100971D
:1048B00001F1E4E2F0E0808186958695EA81FB8152
:1048C0008083EA81FB818081282FE5E2F0E080810E
:1048D000882F90E000249695879507949695879564
:1048E0000794982F802D822BEA81FB818083198287
:1048F00002C083E0898389810F900F900F90CF9140
:10490000DF910895DF93CF9300D00F92CDB7DEB73C
:104910009B838A8381E08983E6E2F0E0808182954F
:104920008F70882F90E0817090700097A9F38A8132
:104930009B810097E1F0E4E2F0E08081882F90E035
:10494000EA81FB8191838083EA81FB81208131812F
:10495000E5E2F0E08081882F90E0982F8827822B75
:10496000932BEA81FB8191838083198202C083E0CB
:104970008983A6E2B0E0E6E2F0E0808180618C937A
:1049800089810F900F900F90CF91DF910895DF9361
:10499000CF9300D00F92CDB7DEB79B838A8381E09F
:1049A0008983E6E2F0E0808182958F70882F90E025
:1049B000817090700097A9F38A819B81009701F123
:1049C000E4E2F0E0808186958695EA81FB81808330
:1049D000EA81FB818081282FE5E2F0E08081882F49
:1049E00090E000249695879507949695879507946F
:1049F000982F802D822BEA81FB818083198202C04F
:104A000083E08983E6E2F0E0808182958F70882FD1
:104A100090E0817090700097A9F389810F900F90BA
:104A20000F90CF91DF910895DF93CF9300D00F9235
:104A3000CDB7DEB79B838A8381E089838A819B819E
:104A4000009741F08A819B819093340280933302D6
:104A5000198202C083E0898389810F900F900F90A3
:104A6000CF91DF910895DF93CF93CDB7DEB7A6E264
:104A7000B0E0E6E2F0E0808180688C9380E0CF9146
:104A8000DF910895DF93CF93CDB7DEB7A6E2B0E014
:104A9000E6E2F0E080818F778C9380E0CF91DF9128
:104AA0000895DF93CF93CDB7DEB7A6E2B0E0E6E29C
:104AB000F0E0808180688C9380E0CF91DF91089551
:104AC000DF93CF93CDB7DEB7A6E2B0E0E6E2F0E049
:104AD00080818F778C9380E0CF91DF9108951F9232
:104AE0000F920FB60F9211242F933F934F935F9322
:104AF0006F937F938F939F93AF93BF93EF93FF93A6
:104B0000DF93CF93CDB7DEB780913302909134021B
:104B1000009729F0E0913302F09134020995CF918A
:104B2000DF91FF91EF91BF91AF919F918F917F9115
:104B30006F915F914F913F912F910F900FBE0F900A
:104B40001F901895DF93CF9300D000D0CDB7DEB77C
:104B500081E08A8351C08981282F30E0C901880F04
:104B6000991F820F931FFC01E856FE4F40818981F7
:104B7000282F30E0C901880F991F820F931FFC0175
:104B8000E756FE4F9081842F692F40E00E94FD1F61
:104B90008B838981282F30E0C901880F991F820FEC
:104BA000931FFC01E856FE4F50818981282F30E089
:104BB000C901880F991F820F931FFC01E756FE4F12
:104BC00040818981282F30E0C901880F991F820F09
:104BD000931FFC01E656FE4F9081852F642F492FCD
:104BE0000E94D3208C838B81882361F48C8188235D
:104BF00049F489818F5F8983909197018981891711
:104C000008F4A9CF8B81882321F48C81882309F4AF
:104C10001A828A810F900F900F900F90CF91DF91A1
:104C20000895DF93CF9300D000D0CDB7DEB78A834D
:104C30007C836B8381E089838A81895C8A839091FC
:104C400097018A81891708F58A81282F30E0C901E8
:104C5000880F991F820F931FFC01E856FE4F408179
:104C60008A81282F30E0C901880F991F820F931F76
:104C7000FC01E756FE4F90812B813C81842F692FE8
:104C8000A9010E943C22898302C082E08983898134
:104C90000F900F900F900F90CF91DF910895DF93B9
:104CA000CF9300D00F92CDB7DEB781E08B831A820D
:104CB00017C1198267C08A81282F30E08981482F67
:104CC00050E0C901880F991F820F931F880F991F09
:104CD000840F951F880F991FFC01ED55FE4F6081D1
:104CE0008A81282F30E08981482F50E0C901880F40
:104CF000991F820F931F880F991F840F951F880F8C
:104D0000991FFC01EC55FE4F9081862F692F41E0E1
:104D10000E94FD1F882381F58A81282F30E0898138
:104D2000482F50E0C901880F991F820F931F880FE9
:104D3000991F840F951F880F991FFC01ED55FE4F99
:104D400060818A81282F30E08981482F50E0C90195
:104D5000880F991F820F931F880F991F840F951F2B
:104D6000880F991FFC01EC55FE4F9081862F692F0B
:104D700040E00E94D3208B838B81882349F4898172
:104D80008F5F89839091A2018981891708F493CF5D
:104D90008B81882309F04DC08A81282F30E0C9011A
:104DA000880F991F820F931F880F991F880F991FD3
:104DB000FC01E555FE4F40818A81282F30E0C90172
:104DC000880F991F820F931F880F991F880F991FB3
:104DD000FC01E455FE4F9081842F692F41E00E9431
:104DE000FD1F882331F58A81282F30E0C901880F03
:104DF000991F820F931F880F991F880F991FFC011D
:104E0000E555FE4F40818A81282F30E0C901880F87
:104E1000991F820F931F880F991F880F991FFC01FC
:104E2000E455FE4F9081842F692F41E00E94D320EA
:104E30008B838B81882309F04DC08A81282F30E035
:104E4000C901880F991F820F931F880F991F880F20
:104E5000991FFC01E355FE4F40818A81282F30E0E5
:104E6000C901880F991F820F931F880F991F880F00
:104E7000991FFC01E255FE4F9081842F692F41E07C
:104E80000E94FD1F882331F58A81282F30E0C90157
:104E9000880F991F820F931F880F991F880F991FE2
:104EA000FC01E355FE4F40818A81282F30E0C90183
:104EB000880F991F820F931F880F991F880F991FC2
:104EC000FC01E255FE4F9081842F692F40E00E9443
:104ED000D3208B838B81882349F48A818F5F8A83D7
:104EE0009091A1018A81981708F0E3CE8B810F90F1
:104EF0000F900F90CF91DF910895DF93CF9300D063
:104F000000D00F92CDB7DEB78C836D8381E08B83A9
:104F10008C81882F90E09C012B5030408091A10122
:104F2000882F90E0281739070CF055C08D818A3002
:104F300008F051C08C818B508C83198245C08D81C3
:104F4000282F30E08981882F90E0A90102C0559573
:104F500047958A95E2F7CA0181708A838C81282F50
:104F600030E08981482F50E0C901880F991F820FD6
:104F7000931F880F991F840F951F880F991FFC019D
:104F8000ED55FE4F60818C81282F30E08981482FBC
:104F900050E0C901880F991F820F931F880F991F36
:104FA000840F951F880F991FFC01EC55FE4F9081CF
:104FB000862F692F4A810E94D3208B838B8188237F
:104FC00061F489818F5F89839091A201898189171A
:104FD00008F4B5CF02C082E08B838B810F900F90D5
:104FE0000F900F900F90CF91DF910895DF93CF93A3
:104FF00000D00F92CDB7DEB78A836B8381E08983BF
:105000008A81882F90E09C012B5030408091A10133
:10501000882F90E02817390784F58B81882319F0B1
:105020008B81813051F58A818B508A838A81282F28
:1050300030E0C901880F991F820F931F880F991FB5
:10504000880F991FFC01E555FE4F40818A81282F6A
:1050500030E0C901880F991F820F931F880F991F95
:10506000880F991FFC01E455FE4F9081842F692F12
:105070004B810E94D320898302C082E08983898189
:105080000F900F900F90CF91DF910895DF93CF9302
:1050900000D000D0CDB7DEB78A837C836B8381E0FC
:1050A00089839091A1018A81981798F08A81882F2D
:1050B00090E0AC014D5E5F4F8A81282F30E0CA013D
:1050C000B9010E94AE2FCB01EB81FC818083198254
:1050D00002C082E0898389810F900F900F900F901A
:1050E000CF91DF910895DF93CF9300D000D0CDB75B
:1050F000DEB78B836C8381E08A838C818D3019F0DD
:105100008C818E30E9F58B81882F90E09C012B50AB
:1051100030408091A101882F90E02817390784F54D
:105120008B818B508B8319828C818E3011F481E0BE
:1051300089838B81282F30E0C901880F991F820F46
:10514000931F880F991F880F991FFC01E355FE4F8D
:1051500040818B81282F30E0C901880F991F820F71
:10516000931F880F991F880F991FFC01E255FE4F6E
:105170009081842F692F49810E94D3208A8302C0A5
:1051800082E08A838A810F900F900F900F90CF91C9
:10519000DF910895DF93CF9300D000D0CDB7DEB775
:1051A00081E08A83198239C08981882F90E0880F35
:1051B000991FFC01E454FE4F20818981882F90E0E3
:1051C000880F991FFC01E354FE4F9081822F692FB5
:1051D00041E00E94FD1F8B838981882F90E0880F1A
:1051E000991FFC01E454FE4F20818981882F90E0B3
:1051F000880F991FFC01E354FE4F9081822F692F85
:1052000040E00E94D3208C838B81882359F48C81C9
:10521000882341F489818F5F89839091BB018981C3
:10522000891710F28B81882321F48C81882309F45B
:105230001A828A810F900F900F900F90CF91DF917B
:105240000895DF93CF9300D00F92CDB7DEB78A8356
:105250006B8381E089838A818E518A839091BB011F
:105260008A818917F8F48B81813019F08B8188232A
:10527000C9F48A81882F90E0880F991FFC01E454BB
:10528000FE4F20818A81882F90E0880F991FFC01B2
:10529000E354FE4F9081822F692F4B810E94D320CF
:1052A000898302C082E0898389810F900F900F90DB
:1052B000CF91DF910895DF93CF93CDB7DEB72797D6
:1052C0000FB6F894DEBF0FBECDBF0E94BE108A831A
:1052D0008FEF90E00E9457158B8389EC40E050E0FF
:1052E00068E472E40E946E168C8383E065E041E01E
:1052F0000E94FD1F8D8383E065E040E00E94D32083
:105300008E83198203C089818F5F8983898185306B
:1053100058F48981282F30E0CE010296FC01E20F7B
:10532000F31F8081882379F38981853059F0898141
:10533000282F30E0CE010296FC01E20FF31F80819E
:105340008F8301C01F828F8127960FB6F894DEBF2E
:105350000FBECDBFCF91DF910895DF93CF9300D0E3
:1053600000D000D0CDB7DEB78E8381E08D838E81F3
:105370008C3F4CF480E090E0A0E0B0E089839A8319
:10538000AB83BC8342C08E8186304CF080E090E0DD
:10539000A0EAB2E489839A83AB83BC8336C08E8152
:1053A000992787FD9095AC01440F551F8E81282FBA
:1053B000332727FD309580913502882F90E0820FAA
:1053C000931F840F951FAC01440F551F8E81282F0A
:1053D000332727FD309580913502882F90E0B90161
:1053E000681B790BCB01840F951F880F991FAA2783
:1053F00097FDA095BA2FBC01CD010E942504DC01C8
:10540000CB0189839A83AB83BC8329813A814B8109
:105410005C8189ECBA01A9010E946E168D838E8190
:10542000809335028D8126960FB6F894DEBF0FBEAD
:10543000CDBFCF91DF910895DF93CF93CDB7DEB786
:1054400027970FB6F894DEBF0FBECDBF0E94BE10E7
:105450008A838FEF90E00E9457158B838AEC40E09F
:1054600050E068E472E40E946E168C8383E064E08E
:1054700041E00E94FD1F8D8383E064E040E00E94D4
:10548000D3208E83198203C089818F5F89838981AC
:10549000853058F48981282F30E0CE010296FC0136
:1054A000E20FF31F8081882379F38981853059F0D9
:1054B0008981282F30E0CE010296FC01E20FF31F14
:1054C00080818F8301C01F828F8127960FB6F89449
:1054D000DEBF0FBECDBFCF91DF910895DF93CF9395
:1054E00000D000D000D0CDB7DEB78E8381E08D83B1
:1054F0008E8185304CF080E090E0A0E0B0E08983C0
:105500009A83AB83BC8342C08E818B3F4CF480E096
:1055100090E0A0EAB2E489839A83AB83BC8336C06F
:105520008E81992787FD9095AC01440F551F8E8180
:10553000282F332727FD309580913602882F90E061
:10554000820F931F840F951FAC01440F551F8E814E
:10555000282F332727FD309580913602882F90E041
:10556000B901681B790BCB01840F951F880F991F18
:10557000AA2797FDA095BA2FBC01CD010E94250452
:10558000DC01CB0189839A83AB83BC8329813A8177
:105590004B815C818AECBA01A9010E946E168D8351
:1055A0008E81809336028D8126960FB6F894DEBFE9
:1055B0000FBECDBFCF91DF910895DF93CF9300D081
:1055C0000F92CDB7DEB781E0898380E060E040E0F4
:1055D0000E94FD1F8A8380E060E040E00E94D320AB
:1055E0008B838A81882351F48B81882339F40E942C
:1055F000DE228A8385E80E949F238B838A81882309
:1056000059F48B81882341F488E59BE20E9414259C
:105610008A830E94C6238B838A81882321F48B810D
:10562000882309F4198289810F900F900F90CF91F0
:10563000DF910895DF93CF9300D000D00F92CDB7C4
:10564000DEB79D838C8381E089838091370281302E
:1056500031F510923702CE0102960E9418248983F8
:105660008A819B81CC01A0E0B0E0BC01CD010E9409
:10567000D704DC01CB01BC01CD0120E030E040E8E3
:105680005EE30E941F02DC01CB01BC01CD010E9440
:105690004900DC01CB01EC81FD819183808389810C
:1056A0000F900F900F900F900F90CF91DF91089572
:1056B000DF93CF93CDB7DEB781E080933702CF91F0
:1056C000DF910895EF920F931F93DF93CF930F9283
:1056D000CDB7DEB78CE089830E94CA280E94A2253C
:1056E0000E944F260E94DD2A0E941C2A0E945B29EC
:1056F0000E94450786E39FE222EC31E0B90148E0D1
:1057000027E101E010E0EE240E946F0783EF9BE2A7
:105710009E012F5F3F4FB90147E028E304E010E00E
:10572000EE240E946F0780E89CE260E070E046E0B3
:1057300028E30AE010E0EE240E946F0780E09FE279
:1057400060E070E045E028E304E610E00F2EF3E0AF
:10575000EF2EF02D0E946F078BE19FE260E070E07A
:1057600044E028E304E610E00F2EF3E0EF2EF02DE6
:105770000E946F0780EB9EE260E070E043E028E368
:1057800002E310E0EE24E3940E946F0786E09DE2BE
:1057900060E070E042E028E302E010E0EE240E94C6
:1057A0006F0781EA9DE260E070E041E028E302E0FB
:1057B00010E0EE24E3940E946F0786E39EE260E02F
:1057C00070E040E027E102E010E0EE240E946F0765
:1057D0000E94E80780E090E00F90CF91DF911F9149
:1057E0000F91EF900895DF93CF9300D000D000D0B9
:1057F000CDB7DEB79D838C838C819D819B838A830B
:105800008091BE01882309F063C08091C101853079
:1058100051F48091C5018983809139028130E1F48E
:105820001092390219C08091450289838091C60186
:1058300081508093C6018091C601882369F48AE073
:105840008093C601809139021E82813011F081E07F
:105850008E838E8180933902EA81FB8180818C3036
:10586000E1F48BE06DE00E94732889819AE0692F52
:105870000E948E2F892F982F8CE0692F0E947D2700
:1058800080913902882321F48CE06EE00E94732815
:10589000EA81FB818BE080832AC08CE06DE00E946E
:1058A000732889819AE0692F0E948E2F982F8BE0B0
:1058B000692F0E947D2780913902882321F48BE093
:1058C0006EE00E947328EA81FB818CE080830FC028
:1058D0008CE06DE00E9473288BE06DE00E947328DD
:1058E000EA81FB818CE0808387E00E94C7082696CE
:1058F0000FB6F894DEBF0FBECDBFCF91DF910895F4
:10590000DF93CF9300D000D0CDB7DEB79C838B83DD
:105910008091C101853009F067C08091BE01882364
:1059200009F062C0CE0101960E941A2B20913B0221
:1059300030913C0289819A81820F931F90933C029F
:1059400080933B020E94C6238091C70181508093BF
:10595000C7018091C701882309F051C08AE0809374
:10596000C70180913B0290913C022AE030E0B901EE
:105970000E949A2FCB018093C5019091C50180911F
:105980003A02292F281B822F809346028091C5015D
:1059900080933A028091460285308CF08091BF015D
:1059A000813049F41092C00181E08093380284E094
:1059B0000E94E20824C081E08093BF0120C0809152
:1059C00046028C3FE4F48091C001813049F410928A
:1059D000BF0185E00E94E20883E1809338020FC096
:1059E00081E08093C0010BC01092380281E0809367
:1059F000BF0181E08093C00186E00E94C7080F903C
:105A00000F900F900F90CF91DF910895DF93CF9378
:105A100000D00F92CDB7DEB79B838A838AEC9E01BC
:105A20002F5F3F4FB9010E941126882309F083C0E0
:105A30008981813039F580913E02882319F5809162
:105A40003D028823F9F48091C101853069F489E031
:105A50008093C1018AEC8093470282E390E09093A7
:105A6000C9018093C80167C0809145028B3408F05A
:105A700062C0809145028F5F8093450281E08093F0
:105A80003E0259C08981813061F480913E028130AB
:105A900041F480913D02882321F481E080933D020E
:105AA0004AC089818823F9F480913E028130D9F47B
:105AB00080913D028130B9F48091CA018150809378
:105AC000CA018091CA018823B1F510923E0210925A
:105AD0003D0282E08093CA0182E390E09093C90185
